:020000040800F2
:10000000000002207102000875020008ED9500084A
:10001000099600080D9600081196000800000000DF
:100020000000000000000000000000009D780008B3
:1000300059030008000000002979000815960008FF
:100040000975000809750008097500080975000898
:1000500009750008097500088997000809750008E6
:100060000975000809750008959700082196000891
:1000700051960008159700080975000809750008D1
:1000800081960008B5960008097500080000000078
:10009000000000000000000000000000A197000820
:1000A0000975000809750008097500080975000838
:1000B0000975000809750008097500080975000828
:1000C0000975000809750008097500080975000818
:1000D000097500080975000809750008000000008E
:1000E000097500080975000809750008000000007E
:1000F0000000000000000000000000004D97000814
:1001000000000000097500080975000879970008CB
:1001100000000000000000000000000000000000DF
:1001200009750008097500080975000809750008B7
:100130000975000800000000000000000000000039
:100140000000000000000000000000000975000829
:100150000975000809750008097500080975000887
:100160000975000809750008000000000000000083
:10017000000000000000000000000000000000007F
:1001800000000000097500080000000000000000E9
:10019000097500080975000800B583B007F01AF961
:1001A000284A294B9A420CD2D043184420F003002D
:1001B000264B0430184453F8041B42F8041B8342B6
:1001C000F9D1234B234A93420AD2D943114421F057
:1001D000030104311944002243F8042B8B42FAD165
:1001E0001D4C1E4D07F004F92D1B684601A907F0B0
:1001F000CDF8032DC8BF2D1904DD54F8043B9847F2
:10020000AC42FAD1164C174D2D1B032DC8BF2D192A
:1002100004DD54F8043B9847AC42FAD1124D134C1C
:100220009DE8030008F0E4FD641B032C0646C8BFEC
:10023000641904DD54F8043D9847AC42FAD13046C5
:1002400007F080F800000020EC0A0020B0ED000864
:10025000F00A0020186600207403000874030008E8
:100260007403000874030008740300087403000892
:100270003C480047FEE700BF1EF0040F0CBFEFF341
:100280000880EFF309807146374A10472DE9F041A5
:10029000094C82B0666BA56BA76A8846044607487E
:1002A00007F07CF8CDF80080394632462B462046D0
:1002B00007F0B0F8FEE700BF00ED00E018EB000823
:1002C000FEE700BF1EF0040F0CBFEFF30880EFF352
:1002D00009807146254A10472DE9F041094C82B04A
:1002E000666BA56BA76A88460446074807F056F870
:1002F000CDF80080394632462B46204607F08AF872
:10030000FEE700BF00ED00E028EB00081EF0040F40
:100310000CBFEFF30880EFF309807146144A1047D1
:100320002DE9F041094C82B0666BA56BA76A88463F
:100330000446074807F032F8CDF8008039463246C7
:100340002B46204607F066F8FEE700BF00ED00E010
:1003500034EB0008FEE700BFFEE700BFFEE700BF8A
:1003600070470000990100088D020008D9020008BA
:04037000210300085D
:1003780008B50A2000F018F8034620B14FF4806150
:10038800024AC2F88010184608BD00BF00E100E02C
:1003980018B14FF48062014B1A60704700E100E029
:1003A80008B507F019F908BD034B1B68034201D0D3
:1003B8000120704700207047003C014000B583B021
:1003C800104B1A6C42F400421A641B6C03F400438D
:1003D8000193019B0C4B0D4A1A6000229A604FF45E
:1003E80082715960DA601A615A614FF4802199610B
:1003F800D8611A620722DA62184605F08DFD03B04B
:100408005DF804FB0038024018640020003C0040FE
:1004180070B586B0012401940294022603960C4D0F
:10042800284601A905F0AEF828462146224605F0DF
:10043800AFF9304607F006F901940323029300232D
:100448000393284601A905F09DF806B070BD00BFCA
:10045800000002402DE9F04700EB0208B8F5805F84
:1004680031D81E46154604468946FFF781FFDFF856
:1004780070A049462246074650460AF0C7FC314656
:100488002A460AEB04000AF0C1FC11481021002298
:1004980005F07EF91FFA88F251460E4805F092FDE4
:1004A8000D4A5368002BFCD10C4A93689B07FCD576
:1004B80010210122064805F06BF93846FFF768FF5E
:1004C8000020BDE8F0874FF0FF30BDE8F08700BF9F
:1004D8000000024018640020B8600240003C004060
:1004E800F00A00202DE9F84386181FFA86F8B8F5B7
:1004F800805F04462CD889461D46FFF739FF102136
:1005080000220746144805F043F9144A144849469E
:10051800434605F0B1FD134A5368002BFCD1124A3B
:100528009368DB07FCD4B44207D20C4A135D05F884
:10053800013B0134A4B2B442F8D310210122064889
:1005480005F026F93846FFF723FF0020BDE8F883B9
:100558004FF0FF30BDE8F88300000240F00A0020A9
:100568001864002040600240003C0040022902D08C
:10057800052909D011E0022A02D10E4BDA6911E0EF
:100588006AB90C4B1A6A0DE0022A02D1094B5A6A61
:1005980008E032B9074B9A6A04E0002202E0002220
:1005A80000E0002200F001031B0122FA03F080B2F0
:1005B800704700BFF41A0020014B987B704700BFBA
:1005C800F41A0020014BD3F884007047F41A002075
:1005D800044B5B5C00EB4300034B03EB8000006BB8
:1005E800704700BF44E50008F41A002001380301F1
:1005F800024A9069D84080B2704700BFF41A0020C0
:1006080000B583B0E1B160F03F007F298DF80400A8
:100618000DD961F07F00C9098DF805008DF8061025
:10062800032001A9FFF716FF03B05DF804FB8DF85E
:100638000510022001A9FFF70DFF03B05DF804FBC8
:1006480060F07F008DF8040001A90120FFF702FF88
:1006580003B05DF804FB00BF08B51318B3F5806F4D
:1006680007DC0B461146821E0920FFF7C9FF002050
:1006780008BD4FF0FF3008BD30B583B0072506240C
:1006880041F60601022201AB2E208DF804508DF8A8
:100698000540FFF7B5FF03B030BD00BF00B583B01C
:1006A80002AB012203F8012D03210D20FFF7A8FF5B
:1006B80003B05DF804FB00BF00B583B0E1B140F0C2
:1006C80040007F298DF804000DD961F07F00C90929
:1006D8008DF805008DF80610032001A9FFF702FF29
:1006E80003B05DF804FB8DF80510022001A9FFF79F
:1006F800F9FE03B05DF804FB8DF8040001A90120A0
:10070800FFF7F0FE03B05DF804FB00BF10B40C4621
:1007180003461146112022465DF8044BFFF7CCBF73
:100728000346002117200522FFF7C6BF0346002114
:1007380015200522FFF7C0BF00B5042283B080B2A0
:1007480089B20DEB0203FFF7B7FF20B14FF0FF307E
:1007580003B05DF804FB9DF807009DF806109DF8AE
:1007680005209DF80430A0F5807001EB002002EB15
:10077800002003EB002003B05DF804FB08B500205F
:100788000146FFF7D9FF08BD00B583B080B289B232
:10079800022201ABFFF790FF20B14FF6FF7003B0C4
:1007A8005DF804FB9DF805009DF8043003EB00207C
:1007B80080B203B05DF804FB30B583B01446150A67
:1007C80089B2022201AB80B28DF804408DF8055041
:1007D800FFF716FF03B030BD08B50246034B9882F9
:1007E8002E2041F60401FFF7E7FF08BDF41A0020A8
:1007F80008B50246034BD88218200021FFF7DCFF1A
:1008080008BD00BFF41A0020F0B5144683B0170ADB
:10081800160C150E042289B20DEB020380B28DF876
:1008280004408DF805708DF806608DF80750FFF7C5
:10083800E7FE03B0F0BD00BF10B504462A200B2127
:1008480001222346FFF7DCFE1E2000216268FFF725
:10085800DBFF10BD08B5054B1A69104340EA815209
:1008680000210820FFF7D0FF002008BDF41A00205F
:1008780010B5002104460420FFF75EFF54B9094B68
:100888000340094C23631A4604200021BDE81040A8
:10089800FFF7BABF054B04F4FF7444F001040340AA
:1008A8002343EEE7FEFF47F0F41A002001FE47F06D
:1008B80030B5022183B00446050A0A4601AB03207D
:1008C8008DF804408DF80550FFF79AFE03B030BD4F
:1008D80030B583B00446050A0021022201AB03208B
:1008E8008DF804408DF80550FFF78AFE03B030BD3F
:1008F8000346002101200822FFF782BE30B583B0ED
:1009080002AC050A04F8040D0421234602222D2016
:100918008DF80550FFF774FE0325234606210122B2
:100928002D208DF80450FFF76BFE2346012200248A
:1009380006212D208DF80440FFF762FE0A212D20A4
:10094800FFF7FAFE03B030BD30B583B002AC002328
:1009580004F8043D02252346022101222C20FFF73A
:100968004FFE2346294601222C208DF80450FFF71C
:1009780047FE03B030BD00BF10B504210446362041
:10098800FFF7DAFE3CB920F4006204213620BDE806
:100998001040FFF739BF40F4006204213620BDE85B
:1009A8001040FFF731BF00BF30B583B002AB6D22F6
:1009B800044603F8052D2E2040F606010122FFF714
:1009C8001FFE74B90725162441F60601022201AB61
:1009D8002E208DF804508DF80540FFF711FE03B066
:1009E80030BDFFF749FE03B030BD00BF0A4B1A6B9C
:1009F80040B983F82D0042F48052042000211A6384
:100A0800FFF702BF012122F4805283F82D10042041
:100A180000211A63FFF7F8BEF41A002000B50B4B4B
:100A280083B01A6B70B922F000521A6302AB120E2F
:100A380003F8012D032101220420FFF7E1FD03B093
:100A48005DF804FB42F000521A63EFE7F41A002045
:100A580010B5002104461A20FFF76EFE020DC4F3FC
:100A68001304120522431A200021BDE81040FFF7A5
:100A7800CBBE00BF024BC3F88800C3F88C10704788
:100A8800F41A0020F0B5044683B001AD14F0010655
:100A98002B464FF0260025D131460222FFF70CFEE7
:100AA8009DF805303146262023F0140602222B46F5
:100AB8008DF80560FFF7A4FDA30711D50F242A219F
:100AC80001222B4636208DF80440FFF799FD0024BB
:100AD8002B4636202A2101228DF80440FFF790FD8D
:100AE80003B0F0BD00210222FFF7E6FD9DF80520C6
:100AF80002AB22F03C02012142F0140203F8032D5C
:100B080026200A46FFF77CFD2B46022101223620CB
:100B1800FFF7D2FD9DF804602B4666F07B060221A4
:100B2800012236208DF804601027FFF769FD0126A1
:100B38002B462821022236208DF804708DF8056096
:100B4800FFF75EFDB8E700BF10B582B0044601AB01
:100B5800362000210222FFF7AFFD0D2C0ED8DFE86A
:100B680004F0252E380D0D0D0D41500D0D075D1C9F
:100B78009DF8053043F002038DF8053001AB0021E4
:100B880001223620FFF73CFD01210A460DF105033D
:100B98003620FFF735FD02B010BD9DF8043023F074
:100BA800300343F020038DF80430E7E79DF8043064
:100BB80023F0030343F001038DF80430DEE79DF8CA
:100BC8000530002223F001038DF805308DF804204C
:100BD800D4E79DF8043023F0030343F002038DF8B3
:100BE8000430CBE79DF804309DF8052023F04C0332
:100BF80043F0480362F07F028DF804308DF8052039
:100C0800BCE79DF804209DF8053022F04C0203F063
:100C18007F038DF804208DF80530AFE79DF8053087
:100C280023F002038DF80530A8E700BF70B582B045
:100C380002AB012403F8084D0021032502223620C7
:100C48008DF8015080260D46FFF7DAFC06210222B6
:100C580001AB2D208DF804508DF80560FFF7D0FC0E
:100C6800204606F0EFFC2046FFF76EFF284602B04C
:100C780070BD00BFF0B583B0064604238DF8073079
:100C88006A4C002384F87C3084F82D30C4F8803016
:100C980084F86930C4F8843084F87D30C4F888302A
:100CA800C4F88C30FFF76AFD2060614B984240F031
:100CB800A9800020FFF748FF2420002101220DF120
:100CC8000703FFF79DFC1E20FFF718FE0546C0F33B
:100CD8000722A27306F008039BB223B10420FFF792
:100CE8000DFEC4F88400514B93F884304BB102AB2D
:100CF800022203F8022D2D2012210122FFF780FC89
:100D080003E00022494BC3F884200620FFF7F6FDD4
:100D1800464C60600720FFF7F1FDA0600023A36147
:100D2800E36123626362A36206F002039BB2D3B15C
:100D3800A37B012B04D81C20FFF7E0FDA06112E083
:100D4800032B10D80D20FFF7D9FD384CE0610E2099
:100D5800FFF7D4FD20620F20FFF7D0FD60621D2051
:100D6800FFF7CCFDA06216F0010F0ED005F01F05AD
:100D78002E4B83F82C50002D47D12E4B1B7803F0B7
:100D88001F032A4A82F82C303FE02A4B1B7803F0D5
:100D98001F03264A82F82C3037E02046FFF7AEFDC5
:100DA80045F8040F0134BD42F7D104E0002243F8AE
:100DB800042F8B42FAD106F40066B6B216B1FFF7DB
:100DC80035FF0AE036200521FFF7DEFC20F400702D
:100DD80082B236200521FFF7EFFC0120FFF7B4FEB1
:100DE80004200021FFF7A8FC104B186326200021DF
:100DF800FFF7A2FC40F4A02226200021FFF704FD03
:100E0800002011E04FF0FF300EE006F004039BB223
:100E180023B9064901F130036031C7E7034F07F1F1
:100E2800300560371024B8E703B0F0BDF41A00208D
:100E38003001CADE6CE5000870B582B002AB03264B
:100E480004460125344003F8085D002102223620BB
:100E580064018DF801602C43FFF7D2FB00261221B4
:100E6800022201AB2D208DF804408DF80560FFF7B4
:100E7800C7FB2846FFF768FE02B070BD10B500201A
:100E880082B0FFF761FE0421002402220DEB01036A
:100E980036208DF804408DF80540FFF7B1FB02B00D
:100EA80010BD00BF024601210A20FFF7ADBC00BFFC
:100EB80070B500F0020282B0044602F0FF0322BBC4
:100EC8000DF1070614F0010412D043F006040021C6
:100ED800012233460D208DF80740FFF791FB0F20C4
:100EE8000321FFF751FC10F481601FD102B070BDDF
:100EF80043F002052146334601220D208DF80750A4
:100F0800FFF77EFB204602B070BD02AE802306F8D4
:100F1800013D0021334601220D20FFF771FB0D4AE8
:100F28009DF80730012182F87D10CBE73346012276
:100F3800002140240D208DF80740FFF761FB0020B9
:100F4800FFF71AFD034B002283F87D204FF0FF3096
:100F5800CCE700BFF41A002000B583B001220DF1E0
:100F680007030F200321FFF7A7FB9DF8073023F0A5
:100F78007F0203F04003B2EB430F01D0FFF78EFB73
:100F880003B05DF804FB00BF70B582B002AC40232B
:100F980000210E2004F8013DFFF7CEFB0646FFF7BF
:100FA800E7F9002105460A460E20FFF72DFC2346E7
:100FB800002101220D20FFF723FB0021094A0F2001
:100FC800FFF722FCFFF7C8FF324600210E20FFF78B
:100FD8001BFC2846FFF7DCF9034B002283F87D2031
:100FE80002B070BDF8FF2724F41A002070B505463A
:100FF80082B0FFF7B1FF15F0010414D00024214698
:1010080001AB032602220D208DF804408DF80560FF
:10101800FFF7F6FA31460F20FFF7B6FB10F48160B0
:101028000FD102B070BD01252146022201AB0D206F
:101038008DF804408DF80550FFF7E2FA204602B01B
:1010480070BDFFF7A1FFAB0703D44FF0FF3002B02C
:1010580070BD01AB214601250D2002228DF8044008
:101068008DF80550FFF7CCFA4FF0FF30D9E700BFF5
:1010780070B582B004460DF1030304200321012258
:10108800FFF71AFB9CB9154E9DF80340326B0DF122
:10109800030322F0805524F01004032101220420C8
:1010A80035638DF80340FFF7ABFA02B070BD0B4E05
:1010B8008DF80440250A022201AB0C2000218DF88E
:1010C8000550FFF79DFA9DF80340326B0DF10303BD
:1010D80042F0805544F01004DFE700BFF41A002006
:1010E80030B583B00446050A2421022201AB27202B
:1010F8008DF804408DF80550FFF782FA03B030BD33
:1011080070B50E460546FFF733F9002104460E2058
:10111800FFF712FB56B920EA05020E200021FFF75F
:1011280073FB2046BDE87040FFF732B940EA05027C
:10113800F3E700BF30B583B002AC022304F8013DE9
:10114800054623462F2000210122FFF759FA45B111
:10115800012523462A462F2000218DF80750FFF746
:101168004FFA03B030BD00BF10B582B002ACE02327
:1011780004F8013D0321234601223620FFF740FAF7
:1011880023460321F024012236208DF80740FFF77B
:1011980037FA02B010BD00BF2DE9F041BF4EC04D77
:1011A800C04882B04FF4806104F0F6FAD6F80080A7
:1011B80095F82D3085F86E30002708F1010339467F
:1011C8000F20336085F86870FFF7B6FA3368B64ABF
:1011D8006866092B044642F828004FF48061B1483C
:1011E800C8BF376004F0D8FAB04B9C4200F0BD800D
:1011F800AC484FF4806104F0CFFA62056BD595F8DE
:101208002D60A74FF6B1A7484FF4806104F0C4FAE7
:10121800620434D514F4801700F0BB80FFF7B4FEE5
:10122800FFF7A2FF2B6B9E489D0000F11881D0F8B4
:101238008C30032280F868200BB16430984702B0E4
:10124800BDE8F08104F46063B3F5606FDBD0FFF7AD
:101258009BFEFFF789FF3B6B9B0004F0F80400F14D
:101268003981D7F88C30032287F8682013B107F149
:10127800640098478B484FF4806104F08DFA14F0AD
:10128800800153D114F400323FD1894A2240002A08
:10129800D5D00F200021FFF7B7FA2B6B002285F875
:1012A8007D209A0040F12281FFF75EFFE30400F100
:1012B800E380270400F11D81E60340F11E81092324
:1012C80085F86830D5F88C30002BB8D07948984725
:1012D80002B0BDE8F08173484FF4806104F05CFA15
:1012E8006304CCD52B6B990040F18980FFF73CFF54
:1012F800D5F88C300021032285F87D1085F8682008
:10130800002B9CD06B489847E2E70F20FFF77CFA48
:10131800D5F88C30042285F868200BB165489847C9
:10132800002385F87D3002B0BDE8F081F8220F2057
:101338000021FFF769FA95F86920594B52B193F8E3
:101348002D20002183F8691022B993F87D300BB164
:10135800FFF71AFED5F88830012285F86820002B9F
:101368003FF46DAF53489847B2E7FFF70DFEFFF71C
:10137800FBFE4C484FF4806104F00EFA49484FF4E4
:10138800806104F009FA4A4A2240002A3FF457AF24
:101398007FE739461020FFF7F7F9474B06463946ED
:1013A80011200222FFF788F96B7B5BB3C6F30906AD
:1013B80014F00801A5F86A60394A07D092F86C3031
:1013C80003F0200303F0FF00002B59D085F86910C3
:1013D800002795F82D10324E022385F86830A1B900
:1013E80004F4DE423A430F20FFF70EFAD6F88C30A9
:1013F800002B3FF424AF06F1640098471FE7FFF77E
:10140800C3FD73E706F07F06D2E7012632460DF1E9
:1014180002030F2003218DF80360FFF74DF99DF8B3
:10142800023023F07F0203F04003B2EB430F6AD08F
:101438002B6B13F0005441D0D5F88C300BB11D48FC
:1014480098470F200221FFF79FF9C4061ED5FFF722
:101458009BFDFFF789FE2B6B98007FF5F0AE00240B
:1014680001252146022201AB0D208DF804408DF89C
:101478000550FFF7C5F8E2E6082385F8683021E74C
:1014880082F8690082F87D000827A2E7032101227B
:101498000DEB01030D20FFF7B3F8D0E6F01A00209A
:1014A800F41A002000040240C05900200300800004
:1014B80000902724581B0020601B0020012621468D
:1014C800022201AB0D208DF804408DF80560FFF76E
:1014D80097F8B1E701273146022201AB0D208DF8BC
:1014E80004608DF80570FFF78BF8C3E6FFF74CFD35
:1014F800DAE6032385F86830E4E660010BD50A23B1
:1015080085F86830DEE604F4C0423A4300210F2033
:10151800FFF77AF98CE7A102EBD50B2385F8683041
:10152800D0E600BF30B583B000248DF80040FFF747
:10153800A5FC214601AB02222C208DF804408DF831
:101548000540FFF75DF86B46062101222C20FFF7C6
:1015580057F8FFF7F9F96B46032101223620FFF708
:10156800ABF89DF800506B460321012205F00F05EA
:1015780036208DF80050FFF743F8012006F062F896
:101588009DF800506B4665F00F05032101223620B7
:101598008DF80050FFF734F8024B83F87D4003B014
:1015A80030BD00BFF41A002010B582B00DF107035A
:1015B80004460E2101222B20FFF77EF89DF8072014
:1015C80004F01F0422F01F0214430DF107030E213B
:1015D80001222B208DF80740FFF712F802B010BD4A
:1015E8002DE9F04383B004460F46057842798E4BC7
:1015F80033F812904678013E8C4BC3F88060042D76
:1016080006D0072D14BF4FF000084FF0010801E085
:101618004FF001082278854B1A73E3793BB9834A66
:10162800136B43F4800313634FEAD90904E07F4A3C
:10163800136B23F480031363237A7C494B73237A57
:101648001B0403F440330A6B1A430A630420002185
:10165800FFF7DAF82E2042F604014A46FFF7ACF805
:10166800F6B23046FFF7A0F9714B13F8059009EB75
:1016780089032B2007210522DFF8D0E17344FEF708
:10168800BFFF2B200E2101226A4BFEF7B9FF28204D
:101698000B210122684B4344FEF7B2FF28200C219E
:1016A800664B53F82920FFF7AFF8E279A37903EBEB
:1016B800420327200221624A32F81320FFF77CF800
:1016C800272004215F4B33F81620FFF775F8E379DC
:1016D8002BB9272006216422FFF76EF822E0A378B1
:1016E800042B0FD110220DF1080808F8012D27202E
:1016F8000621FFF761F82720262101224346FEF73D
:101708007FFF0FE00DF10808282308F8013D272086
:1017180006212022FFF750F82720262101224346E0
:10172800FEF76EFFE37803EB860327200821464A7D
:1017380052F82320FFF768F8628941F241039A4280
:101748000BD027202021FFF737F863892BB92720F2
:10175800202141F24102FFF72FF8DFF8F48023201F
:101768000C21D8F80020FFF74FF808EB4608232093
:101778000421B8F80420FFF71FF8A3795BB1E379D7
:10178800212000210122DFF8CCE07344FEF738FF66
:101798000122032101E000221146607905F00F03C0
:1017A80043EAC0632D01EDB21D4363789B0403F443
:1017B80040231D4323799B0503F0F8631D4345EA45
:1017C80001551F20002145EA4242FFF71DF8E27942
:1017D800520342F400436178A2780A4343EA024282
:1017E800124B1A6108200021FFF70EF817F0010FBD
:1017F80004D00E4B93F82C00FFF7D6FE17F0020F1B
:101808000DD03601094CA069F040C0F34E00FEF738
:10181800E3FFA069F040C0F34E00FEF7E9FF0020A7
:1018280003B0BDE8F08300BF88E50008F41A002083
:1018380044E500086CE50008BCE5000870E5000810
:1018480008E5000834E500084CE5000814E5000840
:1018580038E5000840E5000810B582B00446FFF7F7
:101868000DFB00214FF4FF122820FEF7CDFF0F4A91
:1018780000212820FEF7C8FF0220FFF765F90D2098
:10188800FFF762F9032C8CBF2246042200210A20AC
:10189800FEF7BAFF02AB102203F8042D242101221F
:1018A8002F20FEF7ADFE02B010BD00BF00FF5F00A5
:1018B80038B5044610EE100A0D4608F0A7F90022C4
:1018C8004F4B08F0F7F908F08FFCFF28A8BFFF205E
:1018D800012D40D0042C29D0072C27D0494A4A4B47
:1018E800125D1A2101FB02F1595C884267DD02EBA7
:1018F800420102EB810203EB4202002312F8011FAE
:10190800814203F10103F9DBA3F1110007EE900A0C
:10191800F8EEE77A17EE900A08F078F92EA3D3E9E3
:10192800002308F0C7F941EC100B38BD374B384D90
:101938001A5DC2EB0211C2EB81016B5C984241DD7A
:101948006B18002213F8011F814202F10102F9DB32
:10195800A2F11E00DAE7042C1AD0072C18D0294A65
:101968002C4B125D02EBC20102EB8101595C8142F2
:101978002BDA02EBC20102EB81021344002213F8B6
:10198800011F814202F10102F9DBA2F11700BDE754
:101998001E4A214B125D02EB021113F821108142FD
:1019A80016DA02EB021203EB8202002312F8011F7F
:1019B800814203F10103F9DBA3F11C00A6E79FEDC7
:1019C800080B38BD9FED080B38BD9FED090B38BDDE
:1019D8009FED090B38BD00BF7B14AE47E17A843F09
:1019E800C3F5285C8FC2C5BF333333333333D3BF1A
:1019F800713D0AD7A370CDBFEC51B81E85EBD1BF9E
:101A0800000010404CE70008E4E60008C0E50008C4
:101A180054E70008C8E500085CE60008412380F8A0
:101A28006030882380F86130B0F8CC3080F86330BB
:101A38001B0A80F86430002380F86230704700BFCA
:101A480038B504460D46B0F8C8000021FEF702FF7D
:101A5800012D02D1A06DFFF725FA94F8E000284384
:101A6800C0B2FFF725FA30B1D4F870310133C4F8A9
:101A78007031012038BDFEF793FCC4F8F40501234A
:101A880084F8F335002038BD2DE9F04705460F46A8
:101A9800924698464FF000094C461CE0A60055F8BF
:101AA80024100F4B994203D0204600F0B1FF00E00C
:101AB800002001280BD00123A34098F8002022EA37
:101AC800030388F80030204601F02AF800E0D146E8
:101AD800034BAB510134A742E0DC4846BDE8F08730
:101AE800FFFFCDAB2DE9F04F91B004460D4643788A
:101AF800082B00F2FE84DFE813F009009D00C800FF
:101B08002F01FC047701E701FA017F000378012B1C
:101B180005D0002B60D0022B2ED000F0EABC182094
:101B2800FEF7A6FEB4F8CC00FEF7C2FE04F1BF052E
:101B3800284604F12601022209F068F92846FEF732
:101B4800D7FEE08CC4F88401FEF7C2FE0223A3701E
:101B58000123637084F8E230002384F8F430C4F879
:101B68001031FEF72FFD2046FFF758FFFEF718FC4F
:101B7800C4F8E80000F0BDBC00F1BF05284604F138
:101B88002601022209F042F92846FEF7B1FEB4F810
:101B9800CC00FEF78DFEE08C00F0030384F8BE3025
:101BA800FEF796FEE38CB3F5004F02D1012384F8CB
:101BB8008C310020FEF75CFE0020FEF749FF06236B
:101BC80063700020FFF754FA0020FFF789FA2046D7
:101BD800FFF724FF00F08DBC0020FEF749FE00202F
:101BE800FEF736FF0020FFF743FA0020FFF778FAE8
:101BF8000623637000F07DBC0A2002F0C1F8037868
:101C0800042B03D00123636000F073BC00236360DE
:101C180084F8E230A2786270A370FEF7C1FBC4F8C2
:101C2800E800032005F00EFD02F0F6F902F0E2F9F3
:101C380000F05FBC8378022B22D190F8E220FAB141
:101C480090F8F430013380F8F4300223436008231D
:101C5800437000F59C700421012204F1F203FFF7A0
:101C680013FFC4F87C0194F8F23084F8F3300023B1
:101C780084F8F230FEF794FBC4F8880100F039BC10
:101C880063700023A37000F034BC0378012B02D1E9
:101C980090F8F42001E090F8FD2084F86A20012BE8
:101CA80001D1812300E0712384F869300D20A4F864
:101CB800C80094F8CA305A1C84F8CA2084F86230E4
:101CC80094F8BF3084F8673094F8C03084F86830EE
:101CD800FF2384F8653084F8663004F1600100223F
:101CE800FEF7BAFCC820FEF7B3FE2378012B0FD10C
:101CF80094F8F4302344002283F8F925042384F867
:101D0800E130B4F85000800080B2FFF7B1F90EE07E
:101D180094F8FD302344002283F8F925022384F83F
:101D2800E130B4F85000400080B2FFF7A1F900217B
:101D380084F8F21084F8F110022584F8E050B4F821
:101D4800C800FEF787FD2846FFF7B2F80523637041
:101D5800E57001236360CCE30378012B02D190F88E
:101D6800F42001E090F8FD2084F86A20012B02D1CC
:101D780094F8F22001E094F8F12084F88920012BEE
:101D880001D1822300E0732384F869302C20A4F861
:101D9800C80094F8CA305A1C84F8CA2084F8623003
:101DA80004F160010022FEF757FC002384F8E030BC
:101DB80020460121FFF744FE50B12378012B03D1BF
:101DC80063700223A37094E3204600F0C3FF90E3FE
:101DD800052363700323E3702378012B01D184F872
:101DE800E2300123636084E30B2001F0C9FF03782C
:101DF800012B0BD03BB1042B03D1012384F8F03025
:101E080001E0012363600123636072E300236360E0
:101E1800E378032B0AD12378012B03D163700223C3
:101E2800A37066E3204600F095FF4DE094F8F0209B
:101E3800012A08D1204600F09DFF002384F8F030E5
:101E480084F8E03055E3D0E90201C4E93401022BFB
:101E580032D12378012B0AD1D4E90C2312184B4133
:101E6800B348FF2102400B40CDE90E2309E0D4E935
:101E78000E2312184B41AE48FF2102400B40CDE91A
:101E88000E23DDE90E01030A43EA0163A365A28B71
:101E9800002312184B4103F0FF0310A961E9022344
:101EA80004F18400052208F0B1FF04F16B0004F18D
:101EB800D001052208F0AAFFE3780B2B01D10423F7
:101EC800E37006236370002594F8E0301BB9002006
:101ED800FFF78CF802E0002384F8E03023780BB198
:101EE8000123636007236370002D00F00283022D35
:101EF80003D0042D00F0E582F4E20F2001F040FF4A
:101F0800054600238DF830308DF831308DF83230A9
:101F18008DF833308DF834308DF835308DF8363013
:101F28008DF837308DF838308DF839308DF83A30F3
:101F38008DF83B308DF83C308DF83D308DF83E30D3
:101F48008DF83F3084F8E330437F03F0CC038C2BCB
:101F580027D002D8882B34D043E0C82B11D0CC2B03
:101F68003FD10CA805F12901082208F04FFF0EA85F
:101F780005F12101082208F049FFAA461AF8316F35
:101F880030E00CA805F12301082208F03FFF0EA855
:101F980005F12101022208F039FFAA461AF82B6F31
:101FA80020E00CA805F12901022208F02FFF0EA855
:101FB80005F12101082208F029FFAA461AF82B6F1B
:101FC80010E00CA805F12301022208F01FFF0EA85B
:101FD80005F12101022208F019FFAA461AF8256F17
:101FE80000E0002694F8E2303BB923782BB90623A9
:101FF80063700020FEF72CFD7BE29DF8302002F094
:102008000307A6F17003122B00F24E82DFE813F0EB
:1020180048001300480010014C024C024C024C02CC
:102028004C024C024C024C024C024C024C024C0238
:102038004C0213001001D5E90201C4E93601812ED2
:1020480007D102F007039AF80110234483F8F5102A
:1020580004E09AF80130274487F8FE30E18C48F212
:10206800010399420CD19DF8313042EA0322B2F5BE
:10207800004F05D1AA69B4F804311344C4F80C31EF
:10208800AB780C2B04D1052363700923E37010E2AD
:102098000E2B02D1072363700BE20623637008E25C
:1020A8009AF807300133DFB29DF8313042EA032253
:1020B800B2F5004F0DD12378012B0AD19AF80220EE
:1020C8009AF8013003EB02231BB2C4F81031002345
:1020D800E362AB780C2B04D1052363700A23E37009
:1020E8002BE00E2B29D02378012B04D194F8F22071
:1020F80012F0010F11D1E28C48F201018A4204D199
:1021080094F8F11011F0040F07D1B2F5004F07D180
:1021180094F8F12012F0020F02D0032363700CE050
:10212800012B07D163700222A27084F8E23004E028
:1021380000FEFFFF204600F00DFE702E33D194F80C
:10214800F430BB421FD19DF8300000F003004E3040
:1021580004EB80000AF10301042208F057FE9DF801
:10216800302002F0030202F14E0354F82310CD4B45
:10217800994200F09E810123934094F8F220134382
:1021880084F8F23095E19DF8303003F0030303F151
:102198004E0254F82210C34A914200F08A814E330D
:1021A80044F8232085E194F88C31002B00F08181DC
:1021B80094F8FD30BB4240F07C8184F8FE30234423
:1021C80093F9F935032B23D19DF830009DF8383069
:1021D800184400F00300563004EB80000AF10301B4
:1021E800042208F013FE04F5AC700421022204F165
:1021F800F103FFF749FCC4F87C0194F8F13084F846
:10220800F330002384F8F130AB69C4F8883150E129
:102218009DF830009DF83830184400F0030056301F
:1022280004EB80000AF10301042208F0EFFD40E10D
:1022380000200021CDE90601CDE90801CDE90A0118
:102248009AF8201094F8BE3003EB830B0BF1070BC0
:102258005FFA8BFB822E0BD102F00700204490F826
:10226800F5E09AF80100864502D00623637020E164
:10227800732E12D1E01990F8FEE09AF80100864515
:1022880008D194F88C0128B9B4F826E048F2030084
:10229800864502D1062363700BE1E08C48F2010EFB
:1022A800704509D19DF831E042EA0E22B2F5004F9F
:1022B80002D1012284F8E420C4F88001194111F008
:1022C800010F00F08E80D5E902890023A36508A8D4
:1022D8000AF10201052208F099FD0AA80AEB0B0190
:1022E800052208F093FD06A80AF11B01052208F053
:1022F8008DFDDDE90801DDE90A23121A63EB01030C
:10230800CDE90023D4E934ABD4E93623BAEB020291
:102318006BEB0303104603F0FF01CDE90201B8EBB4
:102328000A0869EB0B0909F0FF09DDE90623DDE975
:102338000AABB2EB0A0A63EB0B0B0BF0FF0BDDE900
:10234800002303F0FF031046194607F085FCCDE98A
:1023580000014046494607F07FFC80468946DDE992
:10236800000142464B4607F0A5FCCDE90401504662
:10237800594607F071FC82468B46DDE9020107F0F9
:102388006BFC02460B4650465946CDE9022307F03E
:1023980091FC02460B46DDE9040107F0D7FACDE9C6
:1023A800040140464946DDE9022307F0D1FA804698
:1023B8008946DDE9000152465B4607F0C9FA024644
:1023C8000B464046494607F0C3FA02460B46DDE98C
:1023D800040107F099FD07F007FF80464FEAE0790E
:1023E80003E0DFF8C0804FF00009822E36D19DF857
:1023F80030309DF8312003EB0223C4F8843103F018
:102408000703463344F8238004F59C700421012215
:1024180004F1F203FFF738FBC4F87C0194F8F230BA
:1024280084F8F330002384F8F2301E4A00239945DB
:1024380008BF90450ED09DF8300094F8BE1000F00B
:1024480055FB94F8BE3001229A4084F8F2204E33AE
:1024580044F82380AB69C4F888310AE09DF830302D
:102468009DF8312003EB0223C4F88431523744F835
:10247800278094F8F825A31893F8F93513F0800FFE
:1024880008D15B42DBB2A11881F8F93513B9FF23F3
:1024980081F8F93501F0C0FD01F0ACFD0623637049
:1024A80007E000BFFFFFCDAB062363700020FEF7F7
:1024B800CFFA2B7F13F0200F1BD0102001F060FC07
:1024C80017E0112001F05CFC83780C2B04D1052364
:1024D80063700B23E3700CE00F2B0AD1204600F049
:1024E80049FC06E00DB10123636063680BB9012361
:1024F8006360606811B0BDE8F08F00BF00000000A5
:102508002DE9F8432DED028B04469FED9B0B07F058
:102518005FF951EC100B07F067FE00EB400000017B
:1025280007EE900AF8EEE77ADFED998A77EEA88A47
:102538009FED930B07F04CF951EC100B07F054FE8C
:1025480000EB40004000C000924BDB7B83B99FED5D
:10255800928A68EE888ADFED917A78EEA78A07EE8C
:10256800900AF8EEE77A27EE888ABDEEC88A22E05C
:10257800012B10D19FED8A8A68EE888ADFED897A6F
:1025880078EEA78A07EE900AF8EEE77A27EE888AAF
:10259800BDEEC88A0FE09FED848A68EE888ADFED79
:1025A800817A78EEA78A07EE900AF8EEE77A27EEA6
:1025B800888ABDEEC88A7D4AD35C764A927A043A04
:1025C800302A1AD8DFE802F02E1919192219191918
:1025D80031191919191919192B1919191F19191933
:1025E8001919191919191919281919191C19191941
:1025F80019191919191919192500DFED6D7A16E03D
:10260800DFED6C7A13E0DFED6C7A10E0DFED6B7ACA
:102618000DE0DFED6B7A0AE0DFED6A7A07E0DFEDC7
:102628006A7A04E0DFED697A01E0DFED697A594AF8
:10263800527A012A0AD107EE103AB8EEC77A77EE35
:10264800277A9FED647A67EE877A09E007EE103AF9
:10265800B8EEC77A77EE277A9FED5F7A67EE877ACA
:1026680017EE900A07F0D2FA06460F46B8EEC88A67
:1026780078EE287A17EE900A07F0C8FA0022574B2E
:1026880007F042FC02460B463046394607F060F92F
:102698003DA3D3E9002307F037FC07F0A5FD054665
:1026A80000F11008204607F09FFA41EC100B00F0EB
:1026B80087F9DFF8E090C9E90C0104EBD4746010E5
:1026C800643007F091FA41EC100B00F079F9C9E990
:1026D8000E0118EE900A07F099FA00223F4B07F016
:1026E80013FC02460B463046394607F031F907F02D
:1026F8007BFD99F80F30F3B905F53375C9F85050DB
:10270800C9F8548000F5967007F06EFA41EC100B8A
:1027180000F056F9C9E9100147EC106B00F050F9C8
:10272800000A40EA01601030C9F848004FF4967377
:10273800C9F84C301BE005F59E75164C2565C4F8A4
:10274800548000F5967007F04FFA41EC100B00F03A
:1027580037F9C4E9100147EC106B00F031F9000AB1
:1027680040EA01601030A0644FF49673E364BDEC56
:10277800028BBDE8F88300BF000000E0917ADD3FDE
:1027880000000000000000000D71AC8BDB68F03F1A
:1027980000001843E85900208534004600452848C1
:1027A8007B3480440046A846C335004340E5000812
:1027B80000000000000000450000C0440000804404
:1027C80000000044000080430000004300008042F5
:1027D80000008045EA5B7E3FB341823F00408F4066
:1027E800014BD884704700BFE859002030B5A1B02C
:1027F80005467F2468460C49224608F007FB182046
:10280800FDF7DCFD2846FFF727F820466946002239
:10281800FDF722FF20460021FEF71CF80020FEF7F6
:1028280047FB002021B030BD2CE800082DE9F0431B
:10283800FBB0002406798DF800408DF801408DF832
:1028480002408DF803408DF80440FDF7A9FD012EE4
:1028580008902BD0062E434D22D102A9A02252A8BF
:10286800ADF80C408DF808408DF8096008F0CEFAF4
:1028780095F8F1758DF8E34107EB870805EB4818E3
:102888000137FFB252A908F5C870A02208F0BEFAB5
:10289800062F88F8906114BF85F8F17585F8F14521
:1028A800002385F8F3357BB0BDE8F0836846FDF773
:1028B80037FF9DF802009DF801109DF80030294D62
:1028C8009DF803709DF80420B5F8C8E0ADF80CE059
:1028D800000400EB0121194401EB076314EB030822
:1028E80091464FEA026202EB132749F1000972464A
:1028F80005F1600109A80693CDE9048907978DF8C9
:1029080008408DF80A408DF8096085F8E34008F022
:102918007DFA02A92AA8A02208F078FA95F8F1759C
:102928008DF8434107EB870805EB48182AA908F5F5
:10293800C870A02208F06AFAD5F8683188F8906162
:102948000137FFB20133062FC5F868314FF0000395
:1029580014BF85F8F17585F8F14585F8F3357BB036
:10296800BDE8F083E859002008B5094A92F9E1303A
:10297800002B0ADD106D13FB00F080B2FEF778FB28
:102988000020FEF733FB0E2008BD0F2008BD00BF56
:10299800E859002010B5094C606D400080B2FEF780
:1029A80067FB0020FEF722FBB4F85400FEF760FB3B
:1029B800D4F874310133C4F8743110BDE8590020DB
:1029C80008B551EC100B06A3D3E9002307F09CFAD5
:1029D80005A3D3E9002307F097FA07F07DFC08BDAB
:1029E800FA48CE3B1835B13D0000000080842E41E6
:1029F80008B507F0F9F804A3D3E9002307F05AF95A
:102A080041EC100B08BD00BFFA48CE3B1835B13D6C
:102A18002DE9F84304460846FFF7EAFF31A3D3E956
:102A2800002351EC100B07F045F92B4D2B4B6A7C1A
:102A380095F80890E40006460F462344C3E900676A
:102A48003AB1B9F1050F32D01DA3D3E9002307F03D
:102A58005BFA07F0F1FB697ADFF87C8000EE100A78
:102A68004846FEF725FF304653EC102B394606F052
:102A78006DFF0022002306460F4607F08DFB98B92C
:102A88003046394610A3D3E9002307F0A3FB58B911
:102A9800134AD8F878311444C4E900670133C8F8F8
:102AA80078310120BDE8F8830020BDE8F88308A349
:102AB800D3E9002307F028FACBE700BFAFF3008083
:102AC800F6285C8FC2F5F43F000000000088D34070
:102AD800295C8FC2F528F83FE859002028610020BA
:102AE800E86100200000001319DDB14130B4064A46
:102AF800064B02EBC101D1E9004503EBC000C0E978
:102B0800004530BC704700BFE8610020E860002045
:102B1800024B03EBC00090ED000B7047E86000200B
:102B2800064B074A30B4C000002400250344104473
:102B3800C3E90045C0E9004530BC70472861002062
:102B4800E8610020014B1870704700BFE859002069
:102B5800014B1878704700BFE8590020034B00224A
:102B6800D3F87C01C3F87C21704700BFE8590020E6
:102B7800014BD3F880017047E8590020014BD3F886
:102B880084017047E8590020014BD3F88801704749
:102B9800E859002038B5124C00250120E565FEF7FC
:102BA800C9FA104B84F8CA50C4F87851C4F83831BF
:102BB800C4F83C31C4F84031C4F84431C4F8183181
:102BC800C4F81C31C4F82031C4F82431C4F82831C1
:102BD800C4F82C31C4F83031C4F8343138BD00BFE2
:102BE800E8590020FFFFCDABFDF7C8BDF8B54F4C45
:102BF800037823724378637343782373837863720B
:102C0800C378E3730279A2724279E2728279A2737D
:102C180000222274022B05460089608208BF012326
:102C28000E46434808BF63744FF0010118BF627431
:102C3800FEF7D6FC2B783F4F217A03EB430317F8B6
:102C480023302375A878FDF7C3FC431E033306D948
:102C58002B78AA7803EB4303134457F82300334F28
:102C6800A06107F11400FDF7E7FDFDF7A5FC0238A8
:102C7800C0B2012833D9A878FDF7B8FCC0F34F00DB
:102C8800431E9BB24FF6FD729342B88320D8FDF7DE
:102C9800A3FDA08BFDF7ACFDA38BE3832B79042B5D
:102CA80039D0F388A362B388A4F802313388A4F832
:102CB80004313288E2627288A4F80621023A03FBE2
:102CC80002F3C4F808313089BDE8F840FFF718BCB2
:102CD800AB78194A013B32F81300B883D7E7387844
:102CE800FA7B397AA0F10200B0FA80F04009FDF7CA
:102CF8003DFC431E9BB24FF6FD729342B883C6D982
:102D08003B7A0E4AA3F10503B3FA83F35B0932F861
:102D18001300B883BBE71820FDF750FB0020FEF72F
:102D28008BF80820FDF74AFBBBE700BFE8590020F5
:102D3800F0590020CCE70008B0E80008ACE800082B
:102D4800034B00F0030003EBC00393ED000B704747
:102D5800E861002008B506220223037042700020B3
:102D6800FEF786F90020FEF7BBF90020BDE8084011
:102D7800FDF76EBE38B503460020DA6D1C78586042
:102D88000132022CDA6532D0012CDA7808D0022A16
:102D980013D0032A1DD00121032259709A7038BD1F
:102DA800022A1BD0032AF6D11D46FEF7EDF80223AE
:102DB80085F8E2406C70AB7038BDDA8C48F20101DE
:102DC8008A421AD0B2F5004FE5D193F8F120920764
:102DD800E1D41846BDE83840FFF7BCBF93F8F210BD
:102DE800C807D8D483F8E2405C709A7038BD0622D0
:102DF8005A70BDE83840FEF73BB993F8F120510707
:102E0800C9D4E6E700F00300032801D0FFF7ACBD02
:102E18000F20704710B50E4CE38CB3F5004F06D069
:102E28000F2048F20102934208BF0F2010BD00F0A6
:102E38000300012801D00F2010BDB4F85000FEF7A0
:102E480017F90020FEF7D2F8E38C0E20E9E700BF5F
:102E5800E859002008B5074B986D9B6CC01AFEF71F
:102E680021F80120FEF7C2F800B908BDBDE8084006
:102E7800FFF790BDE85900202DE9B04F86B000AFAC
:102E880003463960FB800F23FB7500233B61002359
:102E9800FB60A049FA681346DB009B1A1B020B442F
:102EA800E0335B78002B05D10020FEF7E1F8002025
:102EB800FEF716F93B6803F00103002B2CD0954967
:102EC800FA681346DB009B1A1B020B44E0335B785D
:102ED8005BB2012B01D101233B618E49FA6813468D
:102EE800DB009B1A1B020B4403F5C4731B79002BF0
:102EF8000AD18849FA681346DB009B1A1B020B4467
:102F0800B8339B79032B07D10020FEF7B1F80020D6
:102F1800FEF76CF80E23F7E07E49FA681346DB00EB
:102F28009B1A1B020B44583319687A48FA681346EF
:102F3800DB009B1A1B0203444033D3E900234FEA0A
:102F4800122A4AEA036A4FEA132B53461944714876
:102F5800FA681346DB009B1A1B02034458331960B6
:102F68003B6803F00103002B15D16A49FA68134640
:102F7800DB009B1A1B020B44E0335B7859B26548AF
:102F8800FA681346DB009B1A1B020344B8339B798B
:102F98000B44032B03D03B69012B40F0A6805D490D
:102FA800FA681346DB009B1A1B020B44E03302222B
:102FB8001A705849FA681346DB009B1A1B020B4427
:102FC80058331B681846FDF76DFF0320FDF770FFA7
:102FD8000346002B4BD00020FDF73AFD4D49FA6817
:102FE8001346DB009B1A1B020B44E03300221A70C5
:102FF8004849FA681346DB009B1A1B020B4403F589
:10300800B8731B68591C4348FA681346DB009B1ABF
:103018001B02034403F5B87319603E49FA68134666
:10302800DB009B1A1B020B44583319683948FA68AD
:103038001346DB009B1A1B0203444033D3E90023E9
:103048004FEA122848EA03684FEA132943465B000F
:1030580019443048FA681346DB009B1A1B020344E4
:1030680058331960FFF7F6FE0E23FB754BE029492C
:10307800FA681346DB009B1A1B020B445833196885
:103088002448FA681346DB009B1A1B0203444033AA
:10309800D3E90023140A44EA03641D0A23461944A9
:1030A8001C48FA681346DB009B1A1B02034458337A
:1030B80019600C23FB75FDF773F90346184615498B
:1030C800FA681346DB009B1A1B020B4403F5BE6328
:1030D80058601049FA681346DB009B1A1B020B4420
:1030E80003F5BE630122DA700DE0FB88002B06D1E0
:1030F8000020FDF7BDFF0020FDF778FF01E0FFF796
:10310800A9FE0E23FB75FB7D18461837BD46BDE8A2
:10311800B08F00BFE859002090B585B000AF3B6084
:103128000346FB800B467B7113463B710023FB81F2
:10313800FB88DBB203F003037B730023BB6013231C
:10314800FB817949BA681346DB009B1A1B020B44C2
:10315800C833FA891A80BA681346DB009B1A1B0227
:103168006033714A1344591D7B793A681344084601
:103178001946022207F04AFE6B49BA681346DB007B
:103188009B1A1B020B44B833D8796749BA681346AF
:10319800DB009B1A1B020B4460330246DA7162495A
:1031A800BA681346DB009B1A1B020B44B933D87963
:1031B8005D49BA681346DB009B1A1B020B44613356
:1031C8000246DA71BA681346DB009B1A1B026B339E
:1031D800554A1344581C797BBA681346DB009B1A7E
:1031E8009B010B4452339B004F4A13441946042257
:1031F80007F00CFE797B4C48BA681346DB009B1A33
:103208001B0203440B44F83398794749BA681346BC
:10321800DB009B1A1B020B446F3302465A70797B02
:103228004148BA681346DB009B1A1B0203440B444F
:10323800F83300229A713B7901331A463B681344EC
:1032480018783949BA681346DB009B1A1B020B44ED
:10325800F83302465A713449BA681346DB009B1AA0
:103268001B020B44C8339A78531CDCB22E48B96849
:103278000B46DB005B1A1B020344C83321469970D6
:103288002948B9680B46DB005B1A1B02034460330C
:103298009A702549BA681346DB009B1A1B020B4437
:1032A80048335B681846FDF7D3FB1F49BA681346D5
:1032B800DB009B1A1B020B4403F5887300221A607B
:1032C8001949BA681346DB009B1A1B020B44693381
:1032D80000225A701449BA681346DB009B1A1B0275
:1032E8000B446A3300225A700F49BA681346DB0050
:1032F8009B1A1B020B44683372225A70FB891846CA
:103308000021FDF7A7FABA681346DB009B1A1B02D7
:103318006033054A1344FA89104619460022FDF71E
:103328009BF91437BD4690BDE859002090B589B087
:1033380000AF3B600346FB800B467B7113463B7135
:103348000023FB83FB88DBB203F007037B770023B2
:10335800BB611323FB83BC49BA691346DB009B1A84
:103368001B020B44C833FA8B1A80BA691346DB0078
:103378009B1A1B026033B44A1344591D7B793A687F
:10338800134408461946022207F040FDAE49BA69BF
:103398001346DB009B1A1B020B44B833D879AA49A1
:1033A800BA691346DB009B1A1B020B4460330246C2
:1033B800DA71A549BA691346DB009B1A1B020B4454
:1033C800B933D879A049BA691346DB009B1A1B02A6
:1033D8000B4461330246DA71BA691346DB009B1A63
:1033E8001B026B33984A1344581C797FBA691346F9
:1033F800DB009B1A9B010B4446339B00924A134403
:103408001946042207F002FD797F8F48BA691346EE
:10341800DB009B1A1B0203440B44F03358798A499A
:10342800BA691346DB009B1A1B020B446F33024632
:103438005A70797F8448BA691346DB009B1A1B02CD
:1034480003440B44F03300225A713B7901331A4686
:103458003B68134418787C49BA691346DB009B1A09
:103468001B020B44F03302461A717749BA691346B6
:10347800DB009B1A1B020B44C8339A78531CDCB23E
:103488007148B9690B46DB005B1A1B020344C83359
:10349800214699706C48B9690B46DB005B1A1B0220
:1034A800034460339A70797F6748BA691346DB0032
:1034B8009B1A9B010B44463350F82330634A9342CE
:1034C80036D06149BA691346DB009B1A1B020B44CC
:1034D800B8339B791A4601239340D8B25A49BA693E
:1034E8001346DB009B1A1B020B44F03302469A700A
:1034F8005549BA691346DB009B1A1B020B44B833C3
:103508009B791C46797F5048BA691346DB009B1AA1
:103518009B010B44463350F823104B48BA691346B5
:10352800DB009B1A9B0123444E3340F823101EE016
:103538004549BA691346DB009B1A1B020B44B83392
:103548009B7918464049BA691346DB009B1A9B01D0
:1035580003444E333D4A41F823203B49BA69134698
:10356800DB009B1A1B020B44F03300229A70364989
:10357800BA691346DB009B1A1B020B4448335B688D
:103588001846FDF765FA3049BA691346DB009B1AFD
:103598001B020B4403F5C4731B79002B00F08F80CA
:1035A80000237B6100233B610023FB602649BA6945
:1035B8001346DB009B1A1B020B4403F580735B88E0
:1035C8001A463B6BB3FBF2F102FB01F29B1A3B611B
:1035D800FB88D9B21C48BA691346DB009B1A1B0248
:1035E800034403F580739B8803FB01F3FB60FA68CF
:1035F8003B69D31A7B611449BA691346DB009B1AED
:103608001B020B4403F580735B885B089BB25A422C
:103618007B699A421CDD0C49BA691346DB009B1A88
:103628001B020B4403F580735B881A467B69D1182B
:103638000548BA691346DB009B1A1B02034403F5CD
:10364800887319600FE000BFE8590020FFFFCDAB79
:103658003A49BA691346DB009B1A1B020B4403F56F
:1036680088737A691A603549BA691346DB009B1A70
:103678001B020B4403F588731B68D8B22F49BA693B
:103688001346DB009B1A1B020B44693302465A702F
:103698002A49BA691346DB009B1A1B020B4403F53F
:1036A80088731B681B12D8B22449BA691346DB0019
:1036B8009B1A1B020B446A3302465A701EE01F49CC
:1036C800BA691346DB009B1A1B020B4403F5887387
:1036D80000221A601949BA691346DB009B1A1B02BB
:1036E8000B44693300225A701449BA691346DB0047
:1036F8009B1A1B020B446A3300225A700F49BA699D
:103708001346DB009B1A1B020B44683370225A7065
:10371800FB8B18460021FDF79DF8BA691346DB00BC
:103728009B1A1B026033054A1344FA8B104619464C
:103738000022FCF791FF2437BD4690BDE8590020D0
:1037480084B02DE9F041114E9DF8B88096F8F14506
:1037580004EB840506EB451506AF013487E80F0036
:10376800E4B2002705F5C87006A9A0228DF8B37049
:1037780007F04CFB062C85F8908114BF86F8F145BC
:1037880086F8F175BDE8F04104B07047E8590020AB
:1037980084B080B5A8B026AF07F1100E8EE80F00F0
:1037A80000237B604B497A681346DB009B1A1B0297
:1037B8000B441B78022B46D146497A681346DB0036
:1037C8009B1A1B020B44E0335B785BB2002B33DDA2
:1037D80040497A681346DB009B1A1B020B44E0330E
:1037E8005B78DBB2DBB2013BDBB2D8B239497A682D
:1037F8001346DB009B1A1B020B44E03302465A7047
:1038080000200021FFF738FB0346BB7400233B74FC
:1038180044237B740023BB8204232493694607F165
:10382800200390220846194607F0F0FA07F1100322
:103838000FCBFFF785FF46E00020FDF719FC0020BD
:10384800FDF7D4FB3FE023497A681346DB009B1A57
:103858001B020B441B78002B03D10020FDF7C6FB8D
:1038680031E01C497A681346DB009B1A1B020B44A3
:10387800E0335B78DBB2DBB2013BDBB2D8B215498F
:103888007A681346DB009B1A1B020B44E03302469E
:103898005A700020FFF7B6FA0346BB7400233B7446
:1038A80044237B740023BB8204232493694607F1D5
:1038B800200390220846194607F0A8FA07F11003DA
:1038C8000FCBFFF73DFF0837BD46BDE8804004B089
:1038D800704700BFE85900202DE9F04F8346ADF549
:1038E8001F7D00258DF890508DF891508DF89250DD
:1038F8008DF893508DF89450FCF752FD9BF80430E6
:103908002C9026AC022B49D0042B0CD02AA990224B
:10391800684607F07BFA94E80F00FFF739FF0DF5CA
:103928001F7DBDE8F08FB54E33780F22022BA270B1
:1039380000F0078100250427214676A84FF00008EB
:103948004FF00009A0222570A58025616561677088
:10395800C4E9028907F05AFA96F8F1458DF87352CE
:1039680004EB840306EB431676A906F5C870A0227B
:10397800013407F04BFAE4B2A04B86F89071062C9C
:1039880014BF83F8F14583F8F1559D4820210122A1
:1039980001F0FEFE0DF51F7DBDE8F08F9BF80820B5
:1039A800BBF80610A18002F0DF02412A00F0BA80BD
:1039B8002F46AA46A9464FF00108632624A8FCF71B
:1039C800B5FEBBF806102DA80022FCF79FFE9DF857
:1039D80092009DF891109DF890309DF893E09DF825
:1039E80094206670000400EB01210B4403EB0E6386
:1039F8000020114620701206C01841F1000102EBA8
:103A080013224FF00F0E022E2361C4E902016261F6
:103A180084F802E07FF47AAF784EA04427443278E5
:103A280098F81C003B7F002A4ED0012A00F09880AD
:103A3800611903EB0023087FA0F170019FB21229DE
:103A480042D8DFE801F00AE10AC041414141414161
:103A58004141414141414193C000012A00F0228186
:103A6800032A00F05881702800F03B8196F88C21D9
:103A7800624B3AB193F8FD201A4492F9F9150229DC
:103A880000F06A81F18C5D4B48F20202914240F0ED
:103A9800008193F8F8251A4492F8F915080600F100
:103AA800F88093F8E1500131013D82F8F91583F867
:103AB800E1500020FDF7DCFA0020FCF7C9FF38468A
:103AC8000121FFF7D9F9A070012386F8E3302146D8
:103AD8004EA8A02207F09AF996F8F145DFF81C8164
:103AE80004EB840506EB4515002705F5C8704EA9BB
:103AF800A0228DF8D37107F089F9022385F8903157
:103B08000134D6F86C31E4B2062C03F1010314BF7A
:103B180088F8F14588F8F175C6F86C310DF51F7D08
:103B2800BDE8F08F9BF8092002F0CC02882A7FF4C8
:103B38003FAF092507271E46A946BA464FF0080891
:103B48003CE796F8E1305AB2002A7FF7F3AE013B22
:103B5800F08C86F8E1300621FFF78EF9A070E9E6CF
:103B680096F8E110013986F8E11061E7012A2DD0B5
:103B7800254407F007086D7FA369009305F00F053A
:103B880005EB081506EB050E3846002751464A4650
:103B98002DAB8EF8F97586F8F855FFF7C7FBB6F820
:103BA8005400FDF765FA6369B365032386F8E130CD
:103BB800F08C0221FFF760F908F14608114BA0705C
:103BC80046F8283080E7012A7FF47EAF96F8E13086
:103BD80001332AA9902286F8E130684607F016F9E1
:103BE80094E80F00FFF7D4FDD6F86C310122134496
:103BF800C6F86C3186F8E32091E600BFE85900204A
:103C080000000240FFFFCDAB96F88CE1DFF86C8135
:103C1800BEF1000F7FF458AFB8F8261048F202033F
:103C280099423FF651AF012AD0D025445FFA87FB6D
:103C38006B7F0BF0030503F00F0303EB051545F04D
:103C4800800508EB050C2DAB51464A46384688F8E6
:103C5800F8558CF8F9E5FFF75FFA48F201039F423F
:103C680003D0B8F85400FDF703FAF08C6369B36524
:103C7800CBEB000303F0030386F8E1300321FFF7E1
:103C8800FBF807F0030352333B4AA07046F82320A1
:103C98001AE70020FDF7ECF90020FDF7A7F90E233D
:103CA800A37011E796F8F430334407F0030793F84C
:103CB800F925032F02F1010283F8F92549D10F20D4
:103CC80096F8F220A070012307EB8701BB4070181B
:103CD800134324A9052286F8F230703007F096F8CD
:103CE800F2E696F8F835DFF894E0334493F8F915DE
:103CF8000D06CED49EF8E12050B20028C9DD4D1C37
:103D0800013A3846042183F8F9558EF8E120FFF787
:103D1800B3F8A070D8E696F8FD303344384693F8E7
:103D2800F925013283F8F925FFF774F807F003073E
:103D380096F8F120A070012307EB8701BB407018AB
:103D4800134324A9052286F8F130703007F05EF895
:103D5800BAE6FEF709FEB3E793F8F150384645F0A6
:103D680008050327052183F8F15082F8F975FFF754
:103D780083F8A070A8E600BFFFFFCDABE85900208C
:103D88002DE9F04B264D95F8F01501EB810149011D
:103D98006C1804F5C87294F890312BB9214A21485F
:103DA80013705370BDE8F08B04F5CC731D4ED4F836
:103DB800A07192F802C0B2F804E03761D3E9008933
:103DC800834629445078D4F8A8317070D4F8A47187
:103DD800B36101F5D67106F11C007F22C6E902899C
:103DE80086F802C0A6F804E0776107F00FF895F8A6
:103DF800F03594F8901184F82BB20133DBB200222D
:103E0800062B08BF1346317084F8902114BF85F83B
:103E1800F03585F8F02585F8F2350248BDE8F08BD5
:103E2800E85900204861002038B50A4C04F570753F
:103E380020460021A034A02207F0E6F8AC42F7D1D2
:103E4800054B002283F8F12583F8F02583F8F22545
:103E580038BD00BF785B0020E859002038B5254DF3
:103E68000023022240F60F002A706B7085F8E230BA
:103E7800FCF700FF04460320FCF704FEB4BBFEF782
:103E880089FE4DF6CA63A5F8CC3085F8E04085F880
:103E9800E34085F8E440FFF7C7FF0822214605F113
:103EA800BF0007F0B1F82046C5F81041FCF7B6FD91
:103EB8002046FCF79BFD10480121FDF721F90F482A
:103EC8000F49FCF7D7FDFF2305F2F950F6214FF40F
:103ED800807285F8F345C5F87041C5F8744185F8D6
:103EE800E13007F091F8AC65204638BD4FF0FF305F
:103EF80038BD00BFE859002080D0232435280008A9
:103F0800E1380008F8B5364F364897F8F23503EB34
:103F1800830307EB431301210A4693F8904101F00C
:103F280037FC2F4D21462846FDF7DCFD00240646C8
:103F38000028F6D02B480121224601F029FC022E48
:103F480034D095F8E430012B01D00020F8BD97F863
:103F5800E340234D002CF8D12B78012BF5D1FCF749
:103F68001FFAD5F8E830D5F8EC20C01A9042ECD901
:103F780095F8F13585F8E44003EB8302520102F528
:103F8800C87101332944DBB22A44062B4FF084065A
:103F98004FF004008C8081F89B404E7082F89001AD
:103FA80014BF85F8F13585F8F145CEE72B78012B5C
:103FB80006D095F8E430002287F8E3207A60C2E75B
:103FC800E86AAA6AD5F8101185F8E43002440A4470
:103FD800C5F8EC20C5F81411C5F81041EBE700BF8F
:103FE800E859002000080240014BC3F8FC0670475E
:103FF800E859002010B5074C94F82430012B00D064
:1040080010BD1E200021226AFCF7FEFB002384F865
:10401800243010BDE859002010B5084C94F825301C
:10402800012B00D010BDE08BFCF7D6FBA08BFCF772
:10403800DFFB002384F8253010BD00BFE8590020BD
:10404800410900F01F0001238340024A42F8213051
:10405800704700BF00E100E0430900F01F000122A3
:1040680082402033014941F82320704700E100E0F5
:104078002DE9F04F2DED028B624FDFF8B08185B04E
:104088000023B946C346039303E0FEF767FD002803
:1040980046D197F8F345FCF783F9D7F8F465054658
:1040A80003F0C4FAFFF72EFFFEF752FD012CC8F803
:1040B8000000EAD1B9F80431AD1B9D42E5DD214687
:1040C8000F20FCF739FB214605461920FCF734FB85
:1040D800214606460A20FCF72FFB21468246062089
:1040E800FCF72AFB32462B468DE80104464947482F
:1040F80006F0EEFF454805F079F9DBF800300022BC
:10410800012B89F8E0201CD0FCF73EFF062389F834
:104118000130002387F8F335FEF720FD0028B8D0DA
:10412800FEF726FDFEF72AFDFEF72EFDD8F8003033
:10413800022B0AD0012B48D0FCF732F9344B186017
:10414800A7E73048FEF716FEE3E70398FEF7E0FC22
:10415800002251EC100BB0EE408AF0EE608A2D4B35
:1041680005F0A8FD06F040F8002846D1039C092573
:10417800631C072BD6BFA61C00241C462046C8BFBC
:104188000126FEF7C5FC002251EC100BB0EE408A68
:10419800F0EE608A1F4B05F08DFD06F025F808B992
:1041A800013DE5D103961C4B1C491A681C4823465F
:1041B8008DED008B06F08CFF194805F017F9039B6D
:1041C800072BB9DD00230393B6E7039D154A28465C
:1041D8001468FEF7B5FD22468DED000B1249104814
:1041E8002B4606F075FF2B4601331C460C480393FB
:1041F80005F0FCF8032CE5DC9EE7039B1C46013325
:104208000393D0E7E8590020DCE800086862002042
:10421800881B002000408F40C0620020F8E800089A
:1042280018620020146200200CE9000850000020E9
:1042380008B500F01003DAB200F0200303EB8203A4
:1042480000F04000C0B203EBA0000011094B186059
:10425800022907D1042807DC6FEA40406FEA504082
:1042680080B203E080B201E048F20400FEF7B8FA39
:1042780008BD00BF901B0020C0F3400310F0040FDE
:1042880000D002331846704730B587B005464CA3B6
:10429800D3E90023CDE900231820FCF78FF8FEF7B7
:1042A800A3FC3F4B984217D03E4C204610210122D8
:1042B80001F06EFA012003F0C5F920461021002212
:1042C80001F066FA072003F0BDF9FEF78DFC344BC8
:1042D80098425BD1FDF726F9FCF79AF86846FCF797
:1042E80007FBFFF7BBFD002853DB0820FCF766F847
:1042F800FEF77AFC2A4B98424ED115F0080F03D1ED
:104308000122294B1A6002E00222274B1A60264C30
:1043180028462178FFF78CFF2368022B05D1234B11
:104328001B68042B01DD002222601F4B1868FEF772
:1043380009FC2846FFF7A0FF1D4B18601D4C8100A3
:104348000A185200A318A25C8DF80C201A4C22609F
:10435800DA788DF80D205A788DF80E205A798DF874
:1043680011209A798DF812201A89ADF814209A78BC
:104378008DF80F201B798DF810300144490003A8EF
:104388000E4B1944FEF732FC054807E04FF0FF30AA
:1043980004E04FF0FF3001E04FF0FF3007B030BDD0
:1043A8003001CADE0000024050000020901B0020AF
:1043B8008C1B002028000020BC6200200000002088
:1043C8000BA7375E1068071008B50120FFF70CFE31
:1043D80008BD00BF08B50B480221012201F0D8F939
:1043E8000948402101F0D8F9FCF7D6FE074810210A
:1043F80001F0C8F90128EED002480221002201F09C
:10440800C7F908BD0008024000000240000402404D
:10441800094C002108B520680A460B4603F0E2FD66
:1044280000210B4620684FF0FF3203F0DBFD012826
:10443800F6D1FFF7CFFFF3E7B862002038B504469E
:10444800FEF786FB054614F0020F01D11A4A00E078
:104458001A4A1B4C20461B491B4B1B6806F038FEAA
:10446800204604F0C3FF194B1A68194B1A60194B00
:104478001A60012D08D1184C2046184906F028FE6C
:10448800204604F0B3FF38BD022D08D1124C204657
:10449800134906F01DFE204604F0A8FF38BD04228B
:1044A8000C4B1A600C4C20460E4906F011FE2046B3
:1044B80004F09CFF38BD00BFC4E9000820E90008EB
:1044C8001862002024E90008BC620020901B00202C
:1044D80014620020C06200206862002038E90008E9
:1044E80044E9000850E9000808B510F0020F01D1AE
:1044F8000E4A00E00E4A0F4C20460F490F4B1B682E
:1045080006F0E6FD204604F071FF20460C49102213
:1045180006F07CFC204604F069FF4FF48050FEF75B
:1045280065F9022003F08EF8FBE700BFC4E9000834
:1045380020E90008186200205CE90008BC6200203D
:1045480070E9000808B5044B1B7823B1034B1868C1
:10455800002103F0F3FC08BD841B0020B862002092
:1045680030B52548254C8BB004F040FF244804F0B2
:104578003DFF40230A202370FFF76EFD214804F019
:1045880035FF2078FFF780FE01302ED0207800F02C
:104598003803382B2DD01C4CFFF750FF0A20FFF7AB
:1045A8004FFD0FCC6D460FC554F8043B2B6000211E
:1045B800684603F019F8154B18600FCC05AD0FC508
:1045C80023682B60002105A803F00EF8104B032286
:1045D80018600021012003F031FB0E4A0E4B1060D9
:1045E80001221A7000200BB030BD0C4804F0FEFE0A
:1045F800F8E7FFF779FF00BF84E90008941B002063
:1046080090E90008A4E90008B4E800080C6200205A
:1046180008620020B8620020841B0020B4E900086A
:1046280008B5FFF79DFF0020BDE8084002F0F8BF7D
:1046380010B5044601F0C8FB064BA3FB0030800907
:1046480000F0A0F821464FF0FF30002200F04CF8AF
:10465800002010BDD34D621008B50B4B1A6842F408
:1046680000721A601A6842F480621A601A6842F48A
:1046780080721A60032000F025F80020FFF7D8FFA9
:1046880004F07AFF002008BD003C0240024A13688B
:1046980001331360704700BF981B0020014B186856
:1046A800704700BF981B002010B582B00190FFF73B
:1046B800F5FF0446FFF7F2FF019B001B9842F9D370
:1046C80002B010BD074AD1684FF6FF030B4043F014
:1046D800BF6300F0070043F4003343EA0023D360CC
:1046E800704700BF00ED00E0184BDB68C3F30223FE
:1046F80030B4C3F10705042D03F1040428BF0425D1
:10470800062C17D9033B01249C40013C224001247C
:10471800AC40013C21409940002842EA01020CDBF0
:1047280000F1604000F561401201D2B280F8002328
:1047380030BC704700221346E9E7054B00F00F0034
:1047480012010344D2B21A7630BC704700ED00E083
:10475800FCEC00E000F01F0101234009024A8B40F5
:1047680042F82030704700BF00E100E043092033E1
:1047780000F01F0001220249824041F823207047BF
:1047880000E100E00138B0F1807F0ED2084B10B490
:10479800084C5860F02084F82300002207211046B6
:1047A8009A6019605DF8044B70470120704700BF9C
:1047B80010E000E000ED00E04309603300F01F0066
:1047C80001220249824041F82320704700E100E0BD
:1047D800044A136804280CBF43F0040323F00403BD
:1047E8001360704710E000E0002848D02DE9F04140
:1047F80082B0036A019347688368C668056944699B
:104808008169D0F80080C269DFF878E0D0F824C068
:104818001F433E43354302262C4380F8356021432D
:10482800019BD8F800400A43134304EA0E0EBCF17A
:10483800040F43EA0E0312D0C8F80030D8F8143039
:1048480023F0070343EA0C0300220121C8F81430BF
:10485800C26480F83510104602B0BDE8F081046BE0
:10486800C16A826A21430B43C8F80030D8F8143073
:1048780042F0040C23F007034CEA0303E4E70123A6
:10488800184670473F8010F0F0B490F83440012C7F
:1048980031D004688668022580F8355025680127DC
:1048A80025F0010580F8347025602068402E20F43A
:1048B8008020206063600BBFA260A160E160E260BD
:1048C800236843F010032360236843F00803236040
:1048D800236843F004032360636943F08003636142
:1048E800236843F002032360236843F00103236035
:1048F8000020F0BC70470220F0BC7047B14A036842
:10490800934270B5044640F2B680AF4952F8540C51
:10491800583A8B4200F0E58018318B4200F0BB8496
:1049280018318B4200F09185810100F16681516850
:104938004FF480020A422AD05A69120623D55A69CE
:10494800A14922F080028B425A6100F011869F4AE9
:10495800934200F091859E498B420CBF4FF4803101
:104968004FF480019B4AD160E26CA16C42F00202D4
:1049780004200025E26484F8345084F8350011B12D
:104988002046884723688F4A934240F218828E4A0D
:1049980090499342496800F0E5858C4A934200F0BB
:1049A8008B84183293420CBF4FF480224FF08072F0
:1049B8000A422ED01A68900727D51A68814922F032
:1049C80002028B421A6040F258827F4A934200F0FA
:1049D80081841832934200F0478548318B420CBFDE
:1049E8004FF480214FF080717A4AD160E26CA16C5B
:1049F80042F0040204200025E26484F8345084F86C
:104A0800350011B12046884723686E4A934240F228
:104A180018826D4A6F499342496800F0A6856B4A2F
:104A2800934200F04584183293420CBF4FF4801231
:104A38004FF080620A4200F0B1821A68110740F113
:104A4800AA821A68520340F1E6825E4A934240F213
:104A580027831832934200F056841832934200F0AC
:104A68003B855B498B420CBF4FF480114FF080614E
:104A7800584AD1602DE3584A934216D95749D2F87B
:104A8800480302F552728B4200F0B48018318B4211
:104A980000F0B78418318B4200F0DF84800100F108
:104AA800AC8012684FF4800169E14D4A93421ED9E7
:104AB8004C4952F8540C583A8B4200F05084183143
:104AC8008B4200F0258418318B4200F0188586014E
:104AD80000F1938052684FF48001114240F05181F7
:104AE80085E1000700F1898051683F4A22E73F4984
:104AF8003F4A8B42106800F0248418318B4200F042
:104B0800FA8318318B4200F0CD84800175D4126885
:104B18004FF48001114240F034813449344A8B42C9
:104B2800126800F0158418318B4200F0E1831831C7
:104B38008B420CBF4FF480214FF0807111427FF4FB
:104B480039AF2A492A4A8B42126800F00F8418317B
:104B58008B4200F0CA8318318B420CBF4FF480118E
:104B68004FF0806111427FF468AF2049204A8B42A0
:104B7800126840F0A3812021114214BF01220022B3
:104B8800002A00F0E6811A68D10640F1E2811A682D
:104B9800520340F124820B4A934240F2B981183201
:104BA800934200F09E831832934200F074840849BF
:104BB8008B420CBF4FF400114FF00061054AD160E1
:104BC800BFE100BF5864024070640240886402403C
:104BD800A064024000640240B860024010640240D1
:104BE800586002407060024001008000106002407E
:104BF80000600240060740F1C0801A68550726D5B4
:104C08001A68B44922F004028B421A605DD9B24A8C
:104C1800934200F05D831832934200F02984AF4834
:104C2800834214BF4FF000704FF40020AC49A26CCF
:104C3800C860E16C042041F001010025E16484F8BA
:104C4800345084F835002AB1204690472368A14A99
:104C5800934211D9A04AA249934249683FF445AF0B
:104C6800A04A934200F01E83183293420CBF4FF4BF
:104C780080324FF480025DE69B4A934210D99B49EB
:104C8800974A8B42126879D018318B4200F018830A
:104C980018318B420CBF4FF480314FF480016EE025
:104CA800934A934257D99349934A8B42526800F0EA
:104CB8005A8318318B4200F0328318318B420CBF73
:104CC8004FF480314FF4800107E7874A93421FD998
:104CD80002F55672934200F002831832934200F0B4
:104CE800CE838648834214BF4FF000704FF40020F3
:104CF8007B49A26C8860E16C042041F00101002529
:104D0800E16484F8345084F83500002A9CD1B6E771
:104D1800774A934200F29F82794A934200F07D835A
:104D28001832934200F0D1837648834214BF4FF083
:104D380000704FF400207049A26C8860E16C042078
:104D480041F001010025E16484F8345084F835000D
:104D5800002A7FF479AF6A49674A8B42126800F0EB
:104D6800F48218318B4200F0CC8218318B420CBF90
:104D78004FF480314FF48001CCE612686249114249
:104D880020D05A6911067FF5FEAD5A69564922F0BE
:104D980080028B425A6140F2BD81544A934200F02E
:104DA80036831832934200F0708354498B420CBF0B
:104DB8004FF480314FF48001494A9160D4E54A4A62
:104DC800934210D94949464A8B42126824D0183177
:104DD8008B4200F07A8218318B420CBF4FF480214D
:104DE8004FF0807119E0424A93427FF696AE4149EE
:104DF800414A8B42526800F0AE8218318B4200F073
:104E0800948218318B420CBF4FF480214FF080718F
:104E180011427FF4CFAD1BE03C4911427FF4CAAD8B
:104E280032492F4A8B4212683ED018318B4200F02B
:104E3800498218318B420CBF4FF480114FF08061CA
:104E480033E0294A9342EBD8294A93427FF679AE58
:104E58002849294A8B42526800F07F8218318B42D8
:104E680000F0608218318B420CBF4FF480114FF074
:104E7800806111427FF4E1ADAAE01B4A934240F2FF
:104E8800348102F55672934200F027821832934219
:104E980000F0F88219498B420CBF4FF480214FF083
:104EA80080710F4A9160A1E5102111427FF4C5ADD0
:104EB8000E490B4A8B4212683FF45DAE18318B42A3
:104EC80000F0578218318B420CBF4FF400114FF09D
:104ED800006151E65864024070640240A0640240D8
:104EE8000064024088640240B860024010640240D6
:104EF8005860024070600240006002404064024016
:104F08001060024040600240010080000400800000
:104F1800BA4A934200F21381B94A934240F22D8271
:104F28001832934200F0B5821832934200F0118390
:104F3800B4498B420CBF4FF400114FF00061B24AE4
:104F4800D1601A68160300F1F381636C002B40F0FE
:104F5800A38070BDA94A934200F26A81A84A93428D
:104F680040F22D821832934200F0B28218329342F6
:104F780000F0F582A3498B420CBF4FF480114FF02B
:104F88008061A14AD160312284F83520226C12B1A7
:104F98002046904723689D4A934211D99C4A9D49CF
:104FA8009342496800F0E7829B4A934200F07D8172
:104FB800183293420CBF4FF400124FF00062DBE549
:104FC8008E4A93423FF674AF8D4A93427FF6CDAD39
:104FD80092498D4A8B4252687FF470AFCBE51A68CC
:104FE800D00503D41A6822F010021A60874A934247
:104FF8002DD9874A934200F076811832934200F007
:105008004E82183293420CBF4FF400134FF00063E6
:10501800804AD36034E01A68D00503D41A6822F0B5
:1050280008021A60794A934294D9794A934200F067
:105038006D811832934200F0538279498B420CBF3C
:105048004FF480114FF08061724AD1609BE76B4A40
:10505800934200F287806A4A934240F29F81183255
:10506800934200F014821832934200F06F82183293
:1050780093420CBF4FF400134FF00063624AD360B1
:10508800E26CE36BE2641121002284F8351084F8A5
:105098003420002B3FF45DAF2046BDE87040184730
:1050A800564A934200F29680554A934240F29881BC
:1050B8001832934200F00E821832934200F04C826C
:1050C80050498B420CBF4FF480114FF080614E4A1B
:1050D800D1601A6816037FF556AF1A6815037FF575
:1050E80055AF412284F8352050E7454A93425FD9AD
:1050F8001832934200F0A3811832934200F00782DD
:1051080040498B420CBF4FF480214FF080713E4ADA
:10511800D1606BE43A4A934237D91832934200F08F
:105128008A811832934200F0FB8136498B420CBFCA
:105138004FF480314FF48001334AD16014E402F512
:105148005672934200F067811832934200F0B281A0
:1051580034498B420CBF4FF400114FF000612D4AC7
:105168009160EEE602F55672934200F052811832D1
:10517800934200F0A281183293420CBF4FF40013FF
:105188004FF00063234A93607AE7274A934200F07E
:1051980046811832934200F0938124498B420CBF18
:1051A8004FF480314FF48001174A9160FFF7DCBB60
:1051B8001D4A934200F035811832934200F08281F3
:1051C8001A498B420CBF4FF480214FF080710E4A70
:1051D80091600BE402F55672934200F02A8118326E
:1051E800934200F083810F498B420CBF4FF480112A
:1051F8004FF08061074A91606BE700BFB8600240DA
:1052080058600240A06002400060024058640240BA
:10521800706402400064024088640240706002408A
:10522800A0640240406402401060024040600240B6
:1052380002F55672934200F0FA801832934200F059
:105248005281BA498B420CBF4FF480114FF08061F4
:10525800B74A916097E61832934200F0EE80183210
:10526800934200F05F81B348834214BF4FF000704F
:105278004FF40020B049A26CC860E16C042041F0F2
:1052880001010025E16484F8345084F83500002ACF
:105298007FF4DAAC07E585053FF5AFAC51684022ED
:1052A800FFF748BB4022FFF745BB4FF4006263E4B9
:1052B8004FF48062FFF7BEBB4FF48072FFF778BBF4
:1052C80040215CE54FF48061EFE54FF48071A4E57F
:1052D8000820ABE49949FFF787BB9849E1E5082026
:1052E80006E520216AE4202392E64FF4806139E440
:1052F8004FF4807122E486053FF57FAC12684021A7
:1053080008E4402106E41021FFF7B2BB10219BE618
:1053180080053FF572AC52684021FFF7DEBB4021A3
:10532800FFF7DBBB4FF48061A3E54FF480716FE5B5
:105338001B681D037FF50DAEE36B002B7FF4ACAE4D
:1053480007E605073FF559AC12687D49FFF7E2BB50
:105358007A49FFF7F3BB79495AE5102189E5010736
:105368003FF54BAC52687649FFF7B7BB1021FFF702
:10537800F9BB4FF40061FFF7FFBB724A934254D068
:105388001832934200F0B8806F498B420CBF4FF43B
:1053980000114FF00061684A9160D2E5694A934272
:1053A80041D01832934200F0A480183293420CBFC7
:1053B8004FF400134FF000635F4A936060E6614A60
:1053C80093423ED01832934200F0A4805E498B424B
:1053D8000CBF4FF480114FF08061574A9160D2E5BD
:1053E800584A93422FD01832934200F0968056497B
:1053F8008B420CBF4FF480114FF080614E4A916090
:1054080067E681053FF5F9AB12684021B7E44C49DE
:10541800D2E42023B6E62021A1E608208BE44849FF
:10542800C2E64649D3E62023C6E72021B3E7102188
:105438000EE71021DEE642497EE608201AE73F49DA
:1054480065E61021C9E71021D8E706033FF5D5AB7B
:1054580051684FF48032FFF76DBA05033FF5CDABC5
:1054680012684FF480318AE44FF48071FFF7BCBAB8
:105478004FF40070FFF7DABB4021FFF773BA4FF41F
:10548800007035E44FF480710BE5402194E420234B
:10549800F4E5202153E54FF40061FFF78FBB4FF48B
:1054A8000063B5E501033FF5A8AB12684FF48031FE
:1054B800FFF730BB4FF4006151E64FF4006361E63B
:1054C800402171E64FF4807181E64FF4007032E4B8
:1054D800102156E51021FAE54FF48061FFF7C8BAAC
:1054E8004FF48061B0E54FF48061B1E64FF480611C
:1054F80080E64FF400635FE74FF400614BE7050374
:105508003FF57BAB52684FF48031FFF7E6BA4FF4B2
:105518008071FCE54FF480615FE74FF480616DE7CF
:10552800402109E64FF40070A4E600BF4064024041
:1055380000640240A0600240006002400400800055
:105548000100800010600240406002404FF4006398
:1055580094E54FF40061F2E44FF48061B7E54FF44D
:1055680080610EE5054AFFF723BA1022FFF762BAF9
:105578000349FFF7F7B92022FFF7FEBA04008000BD
:10558800010080002DE9F041002382B00F6803E09C
:105598000133102B00F09B8001229A4002EA070495
:1055A8009442F5D14D6825F0100CBCF1020F00F0C3
:1055B80091804FEA430E0322D0F8008002FA0EF2DF
:1055C800D24305F0030602EA080806FA0EF60CF1C3
:1055D800FF3C48EA0606BCF1010F066040F2A080D5
:1055E800C66832408E6806FA0EF61643EA00C660B0
:1055F800CED55E4ADFF87CC1566C46F480465664C8
:10560800566C23F0030202F1804206F4804602F54C
:105618009C32019603F00306DDF804E0D2F8088016
:10562800B6004FF00F0E0EFA06FE604528EA0E0E81
:1056380000F08A800CF5806C604500F08780DFF808
:1056480038C1604500F08780DFF830C1604500F060
:105658008780DFF82CC160450CBF4FF0040C4FF079
:10566800050C0CFA06F646EA0E06DFF804E1966029
:10567800DEF80020DFF8F8E0E64315F4803F14BFB9
:1056880022433240CEF80020DEF80420DFF8E0E0C4
:1056980015F4003F14BF22433240CEF80420DEF850
:1056A8000820DFF8CCE015F4801F14BF22433240F5
:1056B800CEF80820DEF80C20AD0254BF06EA02043A
:1056C800144301332A4A102BD4607FF465AF02B02B
:1056D800BDE8F0814FEAD30E00EB8E0E03F007020F
:1056E800DEF8206092004FF00F0C0CFA02FC26EA5C
:1056F8000C0C0E6996404CEA0606CEF82060032290
:105708004FEA430ED0F800C002FA0EF2D24305F079
:10571800030602EA0C0C06FA0EF64CEA06060660C8
:10572800866802EA060CCE6806FA0EF64CEA060609
:105738008660D0F804C0C5F300162CEA040C9E401D
:105748004CEA060646604BE700268CE74FF0010C52
:105758000CFA06F687E74FF0020C0CFA06F682E719
:105768004FF0030C0CFA06F67DE700BF0038024044
:10577800003C01400000024000080240000C0240CA
:10578800001002400369194214BF0120002070472D
:1057980002B9090481617047436959404161704702
:1057A800044A5169084208B502D0506104F002F871
:1057B80008BD00BF003C01402DE9F04103680446E4
:1057C800D80782B037D5A8498A6802F00C02042AA3
:1057D80000F0F7808A6802F00C02082A00F0ED80D9
:1057E800A24B00221A70FEF759FF054607E0FEF7A4
:1057F80055FF41F28833401B984200F2CB809A4B08
:105808001B689B03F3D4994B22791A706368002BA9
:1058180000F01581FEF742FF054607E0FEF73EFF60
:1058280041F28833401B984200F2B4808E4B1B68CB
:105838009F03F3D5236898072FD58B4A916811F0F9
:105848000C0F00F0AF80916801F00C01082900F0FE
:10585800A580E368002B00F0E180854B01221A60E7
:10586800FEF71CFF054605E0FEF718FF401B6428FD
:1058780000F290807C4B1A689707F5D51968F822D2
:1058880092FAA2F2B2FA82F22069D2B221F0F801B9
:10589800904040EA01021A6023681D0721D45A0784
:1058A80035D4A369CBB1704A926802F00C02082A79
:1058B8007FD0022B6F4B4FF000021A6000F0CF80B0
:1058C800FEF7ECFE044604E0FEF7E8FE001B642841
:1058D80060D8654B1B689B01F6D4002002B0BDE878
:1058E800F0816369002B76D0634B01221A60FEF7C2
:1058F800D5FE054604E0FEF7D1FE401B642849D8D2
:10590800594B5B6F9807F6D523685A07C9D5564B8C
:105918005A491A6C42F080521A641B6C03F0805387
:105928000193019B0B6843F480730B60FEF7B6FE8E
:10593800054604E0FEF7B2FE401B64282AD84F4B08
:105948001B68DB05F6D54E4B00221A70FEF7A6FE43
:10595800054606E0FEF7A2FE41F28833401B984256
:1059680018D8414B1B6F9F07F4D4454B227A1A7005
:10597800A368002B00F0CB80FEF790FE05463A4B5B
:105988001B6F9E078DD4FEF789FE41F28833401BBA
:105998009842F4D9032002B0BDE8F0815268510260
:1059A8003FF557AF304A1268920724D5E268012ABA
:1059B80021D0012002B0BDE8F0814A6851027FF58C
:1059C8000FAF294A126892037FF535AF6268002A43
:1059D8007FF431AFEDE7284A1360FEF75FFE054616
:1059E80004E0FEF75BFE401B6428D3D81E4B5B6FB8
:1059F8009907F6D488E71C4DF822296892FAA2F292
:105A0800B2FA82F22069D2B221F0F801904040EA5D
:105A180001022A601D077FF542AF62E7144A13604E
:105A2800FEF73CFE054604E0FEF738FE401B6428FE
:105A3800B0D80D4B1B689E07F6D423682DE7FEF7F8
:105A48002DFE054606E0FEF729FE41F28833401B8D
:105A580098429FD8044B1B689E03F4D4EAE6FEF7ED
:105A68001DFE054613E000BF003802400238024020
:105A78000000474260004742800E474200700040E5
:105A880070380240FEF70AFE401B642882D8284B73
:105A98001A689101F6D447F6C07C9CFAACFCBCFAB3
:105AA8008CFC4FF4403191FAA1F1B1FA81F14FF039
:105AB800706696FAA6F6B6FA86F6A26A606AD4F80E
:105AC8002080D4F81CE0E76A1A4D5FFA8CF452087B
