:020000040800F2
:1000000000000220590200085D02000869A70008EC
:1000100085A7000889A700088DA700080000000038
:10002000000000000000000000000000D58B000868
:100030004103000800000000658C000891A700083B
:10004000F5870008F5870008F5870008F5870008A0
:10005000F5870008F587000805A90008F58700085E
:10006000F5870008F587000811A900089DA700087A
:10007000CDA7000891A80008F5870008F5870008BB
:10008000FDA7000831A80008F5870008000000005F
:100090000000000000000000000000001DA9000892
:1000A000F5870008F5870008F5870008F587000840
:1000B000F5870008F5870008F5870008F587000830
:1000C000F5870008F5870008F5870008F587000820
:1000D000F5870008F5870008F58700080000000094
:1000E000F5870008F5870008F58700080000000084
:1000F000000000000000000000000000C9A8000887
:1001000000000000F5870008F5870008F5A8000842
:1001100000000000000000000000000000000000DF
:10012000F5870008F5870008F5870008F5870008BF
:10013000F58700080000000000000000000000003B
:10014000000000000000000000000000F58700082B
:10015000F5870008F5870008F5870008F58700088F
:10016000F5870008F5870008000000000000000087
:10017000000000000000000000000000000000007F
:1001800000000000F58700080000000000000000EB
:10019000F5870008F587000800B583B008F090FAED
:1001A000224B234A03E011681960043304322149C9
:1001B0008B42F8D3204B02E000221A6004331F4A1E
:1001C0009342F9D308F08AFA01A8694608F052FA76
:1001D0001B4D1C4B5D1BAD10002404E0184B53F865
:1001E000243098470134A542F8DC174D174B5D1BAE
:1001F000AD10002404E0144B53F824309847013428
:10020000A542F8DC0198009909F0AEFE0546104CB5
:10021000104B1C1BA41004E0013C0D4B53F8243080
:100220009847002CF8DC284608F0FEF90000002072
:1002300028FF0008EC0A0020F00A00208067002058
:100240005C0300085C0300085C0300085C03000812
:100250005C0300085C0300083C480047FEE700BF61
:100260001EF0040F0CBFEFF30880EFF30980714616
:10027000374A10472DE9F04182B007468846084BBF
:100280005D6B9C6B9E6A074808F0FCF9CDF8008016
:10029000384631462A46234608F034FAFEE700BFC6
:1002A00000ED00E090FC0008FEE700BF1EF0040F28
:1002B0000CBFEFF30880EFF309807146254A104721
:1002C0002DE9F04182B007468846084B5D6B9C6B78
:1002D0009E6A074808F0D6F9CDF8008038463146C6
:1002E0002A46234608F00EFAFEE700BF00ED00E0C4
:1002F000A0FC00081EF0040F0CBFEFF30880EFF322
:1003000009807146144A10472DE9F04182B0074632
:100310008846084B5D6B9C6B9E6A074808F0B2F9F3
:10032000CDF80080384631462A46234608F0EAF9DF
:10033000FEE700BF00ED00E0ACFC0008FEE700BFF8
:10034000FEE700BFFEE700BF70470000990100080C
:0C03500075020008C10200080903000843
:1003600008B50A2000F018F8034620B14FF4806168
:10037000024AC2F88010184608BD00BF00E100E044
:1003800018B14FF48062014B1A60704700E100E041
:1003900008B508F0BBFA08BD034B1B68034201D047
:1003A0000120704700207047003C014000B583B039
:1003B000104B1A6C42F400421A641B6C03F40043A5
:1003C0000193019B0C4B0D4A1A6000229A604FF476
:1003D00082715960DA601A615A614FF48021996123
:1003E000D8611A620722DA62184607F055F803B09E
:1003F0005DF804FB0038024080650020003C0040AE
:1004000070B586B0012401940294022603960C4D27
:10041000284601A906F0CEFA28462146224606F0D3
:10042000A7FB304608F0ACFA0194032302930023A3
:100430000393284601A906F0BDFA06B070BD00BFBF
:10044000000002402DE9F04700EB0208B8F5805F9C
:1004500031D81E46154604468946FFF781FFDFF86E
:1004600070A049462246074650460BF08FFD3146A4
:100470002A460AEB04000BF089FD114810210022E6
:1004800006F076FB1FFA88F251460E4807F046F850
:100490000D4A5368002BFCD10C4A93689B07FCD58E
:1004A00010210122064806F063FB3846FFF768FF7B
:1004B0000020BDE8F0874FF0FF30BDE8F08700BFB7
:1004C0000000024080650020B8600240003C00400F
:1004D000F00A00202DE9F84386181FFA86F8B8F5CF
:1004E000805F04462CD889461D46FFF739FF10214E
:1004F00000220746144806F03BFB144A14484946BC
:10050000434607F071F8134A5368002BFCD1124A96
:100510009368DB07FCD4B44207D20C4A135D05F89C
:10052000013B0134A4B2B442F8D3102101220648A1
:1005300006F01EFB3846FFF723FF0020BDE8F883D6
:100540004FF0FF30BDE8F88300000240F00A0020C1
:100550008065002040600240003C0040022902D03B
:10056000052909D011E0022A02D10E4BDA6911E007
:100570006AB90C4B1A6A0DE0022A02D1094B5A6A79
:1005800008E032B9074B9A6A04E0002202E0002238
:1005900000E0002200F001031B0122FA03F080B208
:1005A000704700BFF41A0020014B987B704700BFD2
:1005B000F41A0020014BD3F884007047F41A00208D
:1005C000044B5B5C00EB4300034B03EB8000006BD0
:1005D000704700BFBCF60008F41A00200138030180
:1005E000024A9069D84080B2704700BFF41A0020D8
:1005F00000B583B0E1B160F03F007F298DF80400C1
:100600000DD961F07F00C9098DF805008DF806103D
:10061000032001A9FFF716FF03B05DF804FB8DF876
:100620000510022001A9FFF70DFF03B05DF804FBE0
:1006300060F07F008DF8040001A90120FFF702FFA0
:1006400003B05DF804FB00BF08B51318B3F5806F65
:1006500007DC0B461146821E0920FFF7C9FF002068
:1006600008BD4FF0FF3008BD30B583B00725062424
:1006700041F60601022201AB2E208DF804508DF8C0
:100680000540FFF7B5FF03B030BD00BF00B583B034
:1006900002AB012203F8012D03210D20FFF7A8FF73
:1006A00003B05DF804FB00BF00B583B0E1B140F0DA
:1006B00040007F298DF804000DD961F07F00C90941
:1006C0008DF805008DF80610032001A9FFF702FF41
:1006D00003B05DF804FB8DF80510022001A9FFF7B7
:1006E000F9FE03B05DF804FB8DF8040001A90120B8
:1006F000FFF7F0FE03B05DF804FB00BF10B40C463A
:1007000003461146112022465DF8044BFFF7CCBF8B
:100710000346002117200522FFF7C6BF034600212C
:1007200015200522FFF7C0BF00B5042283B080B2B8
:1007300089B20DEB0203FFF7B7FF20B14FF0FF3096
:1007400003B05DF804FB9DF807009DF806109DF8C6
:1007500005209DF80430A0F5807001EB002002EB2D
:10076000002003EB002003B05DF804FB08B5002077
:100770000146FFF7D9FF08BD00B583B080B289B24A
:10078000022201ABFFF790FF20B14FF6FF7003B0DC
:100790005DF804FB9DF805009DF8043003EB002094
:1007A00080B203B05DF804FB30B583B01446150A7F
:1007B00089B2022201AB80B28DF804408DF8055059
:1007C000FFF716FF03B030BD08B50246034B988211
:1007D0002E2041F60401FFF7E7FF08BDF41A0020C0
:1007E00008B50246034BD88218200021FFF7DCFF32
:1007F00008BD00BFF41A0020F0B5144683B0170AF4
:10080000160C150E042289B20DEB020380B28DF88E
:1008100004408DF805708DF806608DF80750FFF7DD
:10082000E7FE03B0F0BD00BF10B504462A200B213F
:1008300001222346FFF7DCFE1E2000216268FFF73D
:10084000DBFF10BD08B5054B1A69104340EA815221
:1008500000210820FFF7D0FF002008BDF41A002077
:1008600010B5002104460420FFF75EFF54B9094B80
:100870000340094C23631A4604200021BDE81040C0
:10088000FFF7BABF054B04F4FF7444F001040340C2
:100890002343EEE7FEFF47F0F41A002001FE47F085
:1008A00030B5022183B00446050A0A4601AB032095
:1008B0008DF804408DF80550FFF79AFE03B030BD67
:1008C00030B583B00446050A0021022201AB0320A3
:1008D0008DF804408DF80550FFF78AFE03B030BD57
:1008E0000346002101200822FFF782BE30B583B005
:1008F00002AC050A04F8040D0421234602222D202F
:100900008DF80550FFF774FE0325234606210122CA
:100910002D208DF80450FFF76BFE234601220024A2
:1009200006212D208DF80440FFF762FE0A212D20BC
:10093000FFF7FAFE03B030BD30B583B002AC002340
:1009400004F8043D02252346022101222C20FFF752
:100950004FFE2346294601222C208DF80450FFF734
:1009600047FE03B030BD00BF10B504210446362059
:10097000FFF7DAFE3CB920F4006204213620BDE81E
:100980001040FFF739BF40F4006204213620BDE873
:100990001040FFF731BF00BF30B583B002AB6D220E
:1009A000044603F8052D2E2040F606010122FFF72C
:1009B0001FFE74B90725162441F60601022201AB79
:1009C0002E208DF804508DF80540FFF711FE03B07E
:1009D00030BDFFF749FE03B030BD00BF0A4B1A6BB4
:1009E00040B983F82D0042F48052042000211A639C
:1009F000FFF702BF012122F4805283F82D1004205A
:100A000000211A63FFF7F8BEF41A002000B50B4B63
:100A100083B01A6B70B922F000521A6302AB120E47
:100A200003F8012D032101220420FFF7E1FD03B0AB
:100A30005DF804FB42F000521A63EFE7F41A00205D
:100A400010B5002104461A20FFF76EFE020DC4F314
:100A50001304120522431A200021BDE81040FFF7BD
:100A6000CBBE00BF024BC3F88800C3F88C107047A0
:100A7000F41A0020F0B5044683B001AD14F001066D
:100A80002B464FF0260025D131460222FFF70CFEFF
:100A90009DF805303146262023F0140602222B460D
:100AA0008DF80560FFF7A4FDA30711D50F242A21B7
:100AB00001222B4636208DF80440FFF799FD0024D3
:100AC0002B4636202A2101228DF80440FFF790FDA5
:100AD00003B0F0BD00210222FFF7E6FD9DF80520DE
:100AE00002AB22F03C02012142F0140203F8032D74
:100AF00026200A46FFF77CFD2B46022101223620E4
:100B0000FFF7D2FD9DF804602B4666F07B060221BC
:100B1000012236208DF804601027FFF769FD0126B9
:100B20002B462821022236208DF804708DF80560AE
:100B3000FFF75EFDB8E700BF10B582B0044601AB19
:100B4000362000210222FFF7AFFD0D2C0ED8DFE882
:100B500004F0252E380D0D0D0D41500D0D075D1CB7
:100B60009DF8053043F002038DF8053001AB0021FC
:100B700001223620FFF73CFD01210A460DF1050355
:100B80003620FFF735FD02B010BD9DF8043023F08C
:100B9000300343F020038DF80430E7E79DF804307C
:100BA00023F0030343F001038DF80430DEE79DF8E2
:100BB0000530002223F001038DF805308DF8042064
:100BC000D4E79DF8043023F0030343F002038DF8CB
:100BD0000430CBE79DF804309DF8052023F04C034A
:100BE00043F0480362F07F028DF804308DF8052051
:100BF000BCE79DF804209DF8053022F04C0203F07C
:100C00007F038DF804208DF80530AFE79DF805309F
:100C100023F002038DF80530A8E700BF70B582B05D
:100C200002AB012403F8084D0021032502223620DF
:100C30008DF8015080260D46FFF7DAFC06210222CE
:100C400001AB2D208DF804508DF80560FFF7D0FC26
:100C5000204607F095FE2046FFF76EFF284602B0BB
:100C600070BD00BFF0B583B0064604238DF8073091
:100C70006A4C002384F87C3084F82D30C4F880302E
:100C800084F86930C4F8843084F87D30C4F8883042
:100C9000C4F88C30FFF76AFD2060614B984240F049
:100CA000A9800020FFF748FF2420002101220DF138
:100CB0000703FFF79DFC1E20FFF718FE0546C0F353
:100CC0000722A27306F008039BB223B10420FFF7AA
:100CD0000DFEC4F88400514B93F884304BB102AB45
:100CE000022203F8022D2D2012210122FFF780FCA1
:100CF00003E00022494BC3F884200620FFF7F6FDED
:100D0000464C60600720FFF7F1FDA0600023A3615F
:100D1000E36123626362A36206F002039BB2D3B174
:100D2000A37B012B04D81C20FFF7E0FDA06112E09B
:100D3000032B10D80D20FFF7D9FD384CE0610E20B1
:100D4000FFF7D4FD20620F20FFF7D0FD60621D2069
:100D5000FFF7CCFDA06216F0010F0ED005F01F05C5
:100D60002E4B83F82C50002D47D12E4B1B7803F0CF
:100D70001F032A4A82F82C303FE02A4B1B7803F0ED
:100D80001F03264A82F82C3037E02046FFF7AEFDDD
:100D900045F8040F0134BD42F7D104E0002243F8C6
:100DA000042F8B42FAD106F40066B6B216B1FFF7F3
:100DB00035FF0AE036200521FFF7DEFC20F4007045
:100DC00082B236200521FFF7EFFC0120FFF7B4FEC9
:100DD00004200021FFF7A8FC104B186326200021F7
:100DE000FFF7A2FC40F4A02226200021FFF704FD1B
:100DF000002011E04FF0FF300EE006F004039BB23C
:100E000023B9064901F130036031C7E7034F07F109
:100E1000300560371024B8E703B0F0BDF41A0020A5
:100E20003001CADEE4F6000870B582B002AB0326DA
:100E300004460125344003F8085D002102223620D3
:100E400064018DF801602C43FFF7D2FB00261221CC
:100E5000022201AB2D208DF804408DF80560FFF7CC
:100E6000C7FB2846FFF768FE02B070BD10B5002032
:100E700082B0FFF761FE0421002402220DEB010382
:100E800036208DF804408DF80540FFF7B1FB02B025
:100E900010BD00BF024601210A20FFF7ADBC00BF14
:100EA00070B500F0020282B0044602F0FF0322BBDC
:100EB0000DF1070614F0010412D043F006040021DE
:100EC000012233460D208DF80740FFF791FB0F20DC
:100ED0000321FFF751FC10F481601FD102B070BDF7
:100EE00043F002052146334601220D208DF80750BC
:100EF000FFF77EFB204602B070BD02AE802306F8ED
:100F0000013D0021334601220D20FFF771FB0D4A00
:100F10009DF80730012182F87D10CBE7334601228E
:100F2000002140240D208DF80740FFF761FB0020D1
:100F3000FFF71AFD034B002283F87D204FF0FF30AE
:100F4000CCE700BFF41A002000B583B001220DF1F8
:100F500007030F200321FFF7A7FB9DF8073023F0BD
:100F60007F0203F04003B2EB430F01D0FFF78EFB8B
:100F700003B05DF804FB00BF70B582B002AC402343
:100F800000210E2004F8013DFFF7CEFB0646FFF7D7
:100F9000E7F9002105460A460E20FFF72DFC2346FF
:100FA000002101220D20FFF723FB0021094A0F2019
:100FB000FFF722FCFFF7C8FF324600210E20FFF7A3
:100FC0001BFC2846FFF7DCF9034B002283F87D2049
:100FD00002B070BDF8FF2724F41A002070B5054652
:100FE00082B0FFF7B1FF15F0010414D000242146B0
:100FF00001AB032602220D208DF804408DF8056018
:10100000FFF7F6FA31460F20FFF7B6FB10F48160C8
:101010000FD102B070BD01252146022201AB0D2087
:101020008DF804408DF80550FFF7E2FA204602B033
:1010300070BDFFF7A1FFAB0703D44FF0FF3002B044
:1010400070BD01AB214601250D2002228DF8044020
:101050008DF80550FFF7CCFA4FF0FF30D9E700BF0D
:1010600070B582B004460DF1030304200321012270
:10107000FFF71AFB9CB9154E9DF80340326B0DF13A
:10108000030322F0805524F01004032101220420E0
:1010900035638DF80340FFF7ABFA02B070BD0B4E1D
:1010A0008DF80440250A022201AB0C2000218DF8A6
:1010B0000550FFF79DFA9DF80340326B0DF10303D5
:1010C00042F0805544F01004DFE700BFF41A00201E
:1010D00030B583B00446050A2421022201AB272043
:1010E0008DF804408DF80550FFF782FA03B030BD4B
:1010F00070B50E460546FFF733F9002104460E2071
:10110000FFF712FB56B920EA05020E200021FFF777
:1011100073FB2046BDE87040FFF732B940EA050294
:10112000F3E700BF30B583B002AC022304F8013D01
:10113000054623462F2000210122FFF759FA45B129
:10114000012523462A462F2000218DF80750FFF75E
:101150004FFA03B030BD00BF10B582B002ACE0233F
:1011600004F8013D0321234601223620FFF740FA0F
:1011700023460321F024012236208DF80740FFF793
:1011800037FA02B010BD00BF2DE9F041BF4EC04D8F
:10119000C04882B04FF4806105F0F0FCD6F80080C2
:1011A00095F82D3085F86E30002708F10103394697
:1011B0000F20336085F86870FFF7B6FA3368B64AD7
:1011C0006866092B044642F828004FF48061B14854
:1011D000C8BF376005F0D2FCB04B9C4200F0BD8028
:1011E000AC484FF4806105F0C9FC62056BD595F8F9
:1011F0002D60A74FF6B1A7484FF4806105F0BEFC03
:10120000620434D514F4801700F0BB80FFF7B4FEFD
:10121000FFF7A2FF2B6B9E489D0000F11881D0F8CC
:101220008C30032280F868200BB16430984702B0FC
:10123000BDE8F08104F46063B3F5606FDBD0FFF7C5
:101240009BFEFFF789FF3B6B9B0004F0F80400F165
:101250003981D7F88C30032287F8682013B107F161
:10126000640098478B484FF4806105F087FC14F0C8
:10127000800153D114F400323FD1894A2240002A20
:10128000D5D00F200021FFF7B7FA2B6B002285F88D
:101290007D209A0040F12281FFF75EFFE30400F118
:1012A000E380270400F11D81E60340F11E8109233C
:1012B00085F86830D5F88C30002BB8D0794898473D
:1012C00002B0BDE8F08173484FF4806105F056FC30
:1012D0006304CCD52B6B990040F18980FFF73CFF6C
:1012E000D5F88C300021032285F87D1085F8682020
:1012F000002B9CD06B489847E2E70F20FFF77CFA61
:10130000D5F88C30042285F868200BB165489847E1
:10131000002385F87D3002B0BDE8F081F8220F206F
:101320000021FFF769FA95F86920594B52B193F8FB
:101330002D20002183F8691022B993F87D300BB17C
:10134000FFF71AFED5F88830012285F86820002BB7
:101350003FF46DAF53489847B2E7FFF70DFEFFF734
:10136000FBFE4C484FF4806105F008FC49484FF4FF
:10137000806105F003FC4A4A2240002A3FF457AF3F
:101380007FE739461020FFF7F7F9474B0646394605
:1013900011200222FFF788F96B7B5BB3C6F30906C5
:1013A00014F00801A5F86A60394A07D092F86C3049
:1013B00003F0200303F0FF00002B59D085F86910DB
:1013C000002795F82D10324E022385F86830A1B918
:1013D00004F4DE423A430F20FFF70EFAD6F88C30C1
:1013E000002B3FF424AF06F1640098471FE7FFF796
:1013F000C3FD73E706F07F06D2E7012632460DF102
:1014000002030F2003218DF80360FFF74DF99DF8CB
:10141000023023F07F0203F04003B2EB430F6AD0A7
:101420002B6B13F0005441D0D5F88C300BB11D4814
:1014300098470F200221FFF79FF9C4061ED5FFF73A
:101440009BFDFFF789FE2B6B98007FF5F0AE002423
:1014500001252146022201AB0D208DF804408DF8B4
:101460000550FFF7C5F8E2E6082385F8683021E764
:1014700082F8690082F87D000827A2E70321012293
:101480000DEB01030D20FFF7B3F8D0E6F01A0020B2
:10149000F41A002000040240C0590020030080001C
:1014A00000902724581B0020601B002001262146A5
:1014B000022201AB0D208DF804408DF80560FFF786
:1014C00097F8B1E701273146022201AB0D208DF8D4
:1014D00004608DF80570FFF78BF8C3E6FFF74CFD4D
:1014E000DAE6032385F86830E4E660010BD50A23C9
:1014F00085F86830DEE604F4C0423A4300210F204C
:10150000FFF77AF98CE7A102EBD50B2385F8683059
:10151000D0E600BF30B583B000248DF80040FFF75F
:10152000A5FC214601AB02222C208DF804408DF849
:101530000540FFF75DF86B46062101222C20FFF7DE
:1015400057F8FFF7F9F96B46032101223620FFF720
:10155000ABF89DF800506B460321012205F00F0502
:1015600036208DF80050FFF743F8012007F008FA05
:101570009DF800506B4665F00F05032101223620CF
:101580008DF80050FFF734F8024B83F87D4003B02C
:1015900030BD00BFF41A002010B582B00DF1070372
:1015A00004460E2101222B20FFF77EF89DF807202C
:1015B00004F01F0422F01F0214430DF107030E2153
:1015C00001222B208DF80740FFF712F802B010BD62
:1015D0002DE9F04383B004460F46057842798E4BDF
:1015E00033F812904678013E8C4BC3F88060042D8E
:1015F00006D0072D14BF4FF000084FF0010801E09E
:101600004FF001082278854B1A73E3793BB9834A7E
:10161000136B43F4800313634FEAD90904E07F4A54
:10162000136B23F480031363237A7C494B73237A6F
:101630001B0403F440330A6B1A430A63042000219D
:10164000FFF7DAF82E2042F604014A46FFF7ACF81D
:10165000F6B23046FFF7A0F9714B13F8059009EB8D
:1016600089032B2007210522DFF8D0E17344FEF720
:10167000BFFF2B200E2101226A4BFEF7B9FF282065
:101680000B210122684B4344FEF7B2FF28200C21B6
:10169000664B53F82920FFF7AFF8E279A37903EB03
:1016A000420327200221624A32F81320FFF77CF818
:1016B000272004215F4B33F81620FFF775F8E379F4
:1016C0002BB9272006216422FFF76EF822E0A378C9
:1016D000042B0FD110220DF1080808F8012D272046
:1016E0000621FFF761F82720262101224346FEF755
:1016F0007FFF0FE00DF10808282308F8013D27209F
:1017000006212022FFF750F82720262101224346F8
:10171000FEF76EFFE37803EB860327200821464A95
:1017200052F82320FFF768F8628941F241039A4298
:101730000BD027202021FFF737F863892BB927200A
:10174000202141F24102FFF72FF8DFF8F480232037
:101750000C21D8F80020FFF74FF808EB46082320AB
:101760000421B8F80420FFF71FF8A3795BB1E379EF
:10177000212000210122DFF8CCE07344FEF738FF7E
:101780000122032101E000221146607905F00F03D8
:1017900043EAC0632D01EDB21D4363789B0403F45B
:1017A00040231D4323799B0503F0F8631D4345EA5D
:1017B00001551F20002145EA4242FFF71DF8E2795A
:1017C000520342F400436178A2780A4343EA02429A
:1017D000124B1A6108200021FFF70EF817F0010FD5
:1017E00004D00E4B93F82C00FFF7D6FE17F0020F33
:1017F0000DD03601094CA069F040C0F34E00FEF751
:10180000E3FFA069F040C0F34E00FEF7E9FF0020BF
:1018100003B0BDE8F08300BF00F70008F41A002011
:10182000BCF60008E4F6000834F70008E8F6000803
:1018300080F60008ACF60008C4F600088CF6000834
:10184000B0F60008B8F6000810B582B00446FFF7FD
:101850000DFB00214FF4FF122820FEF7CDFF0F4AA9
:1018600000212820FEF7C8FF0220FFF765F90D20B0
:10187000FFF762F9032C8CBF2246042200210A20C4
:10188000FEF7BAFF02AB102203F8042D2421012237
:101890002F20FEF7ADFE02B010BD00BF00FF5F00BD
:1018A00038B504460D4610EE100A09F06FFA002212
:1018B000334B09F0BFFA09F057FDFF2800DDFF2088
:1018C000012D26D1042C01D0072C10D12D4B195DF0
:1018D000002300E0013301EB011292001A442A4C6C
:1018E000A25C8242F6DB1C3B07EE903A36E0274BC7
:1018F000195D002300E0013301EBC10201EB82021C
:101900001A44234CA25C8242F5DB173B07EE903A67
:1019100024E0042C01D0072C11D11A4B195D0023AF
:1019200000E00133C1EB0112C1EB82021A44194CF1
:10193000A25C8242F5DB1E3B07EE903A0EE0134BB1
:101940001C5D002300E001331A2202FB043212491D
:101950008A5C8242F7DB113B07EE903AF8EEE77AB9
:1019600017EE900A09F012FA03A3D3E9002309F055
:1019700061FA41EC100B38BD7B14AE47E17A843F2D
:101980000000104038F70008D4F70008C4F8000839
:1019900040F70008CCF800085CF80008412380F804
:1019A0006030882380F86130B0F8CC3080F8633044
:1019B0001B0A80F86430002380F86230704700BF53
:1019C00038B504460D46B0F8C8000021FEF73AFFCE
:1019D000012D02D1A06DFFF75DFA94F8E0002843D5
:1019E000C0B2FFF75DFA30B1D4F870310133C4F8FA
:1019F0007031012038BDFEF7CBFCC4F8F40501239B
:101A000084F8F335002038BD2DE9F04705460F4630
:101A1000924698464FF000094C461CE0A60055F847
:101A200024100F4B994203D0204600F0B1FF00E094
:101A3000002001280BD00123A34098F8002022EABF
:101A4000030388F80030204601F02AF800E0D14670
:101A5000034BAB510134A742E0DC4846BDE8F087B8
:101A6000FFFFCDAB2DE9F04F91B004460D46437812
:101A7000082B00F20085DFE813F009009D00C80084
:101A80002F01FE047701E801FB017F000378012BA1
:101A900005D0002B60D0022B2ED000F0ECBC18201B
:101AA000FEF7DEFEB4F8CC00FEF7FAFE04F1BF0547
:101AB000284604F1260102220AF068FA2846FEF7B9
:101AC0000FFFE08CC4F88401FEF7FAFE0223A37036
:101AD0000123637084F8E330002384F8F430C4F801
:101AE0001031FEF767FD2046FFF758FFFEF750FC68
:101AF000C4F8E80000F0BFBC00F1BF05284604F1BF
:101B0000260102220AF042FA2846FEF7E9FEB4F85E
:101B1000CC00FEF7C5FEE08C00F0030384F8BE3075
:101B2000FEF7CEFEE38CB3F5004F02D1012384F81B
:101B30008C310020FEF794FE0020FEF781FF062383
:101B400063700020FFF78CFA0020FFF7C1FA2046EF
:101B5000FFF724FF00F08FBC0020FEF781FE00207D
:101B6000FEF76EFF0020FFF77BFA0020FFF7B0FAC8
:101B70000623637000F07FBC0A2001F0ADFF0378FC
:101B8000042B03D00123636000F075BC0023636065
:101B900084F8E330A2786270A370FEF7F9FBC4F812
:101BA000E800032006F0ECFE02F0E2F802F0CEF8C6
:101BB00000F061BC8378022B22D190F8E320FAB1C7
:101BC00090F8F430013380F8F430022343600823A6
:101BD000437000F59C700421012204F1F203FFF729
:101BE00013FFC4F87C0194F8F23084F8F33000233A
:101BF00084F8F230FEF7CCFBC4F8880100F03BBC5F
:101C000063700023A37000F036BC0378012B02D16F
:101C100090F8F42001E090F8FD2084F86A20012B70
:101C200001D1812300E0712384F869300D20A4F8EC
:101C3000C80094F8CA305A1C84F8CA2084F862306C
:101C400094F8BF3084F8673094F8C03084F8683076
:101C5000FF2384F8653084F8663004F160010022C7
:101C6000FEF7F2FCC820FEF7EBFE2378012B0FD124
:101C700094F8F4302344002283F8F925042384F8EF
:101C8000E130B4F85000800080B2FFF7E9F90EE0CF
:101C900094F8FD302344002283F8F925022384F8C8
:101CA000E130B4F85000400080B2FFF7D9F90021CC
:101CB00084F8F21084F8F110022584F8E050B4F8AA
:101CC000C800FEF7BFFD2846FFF7EAF8052363705A
:101CD000E57001236360CEE30378012B02D190F815
:101CE000F42001E090F8FD2084F86A20012B02D155
:101CF00094F8F22001E094F8F12084F88920012B77
:101D000001D1822300E0732384F869302C20A4F8E9
:101D1000C80094F8CA305A1C84F8CA2084F862308B
:101D200004F160010022FEF78FFC002384F8E0300C
:101D300020460121FFF744FE50B12378012B03D147
:101D400063700223A37096E3204600F0C3FF92E382
:101D5000052363700323E3702378012B01D184F8FA
:101D6000E3300123636086E30B2001F0B5FE0378C6
:101D7000012B0BD03BB1042B03D1012384F8F030AD
:101D800001E0012363600123636074E30023636067
:101D9000E378032B0BD12378012B04D10623637046
:101DA0000223A37067E3204600F094FF4DE094F80F
:101DB000F020012A08D1204600F09CFF002384F87F
:101DC000F03084F8E03056E3D0E90201C4E9340190
:101DD000022B32D12378012B0AD1D4E90C2312181B
:101DE0004B41B448FF2102400B40CDE90E2309E0EE
:101DF000D4E90E2312184B41AE48FF2102400B409C
:101E0000CDE90E23DDE90E01030A43EA0163A36570
:101E1000A28B002312184B4103F0FF0310A961E9C4
:101E2000022304F1840005220AF0B0F804F16B00EB
:101E300004F1D00105220AF0A9F8E3780B2B01D1B7
:101E40000423E37006236370002594F8E0301BB987
:101E50000020FFF7C3F802E0002384F8E030237885
:101E60000BB10123636007236370002D00F003832F
:101E7000022D03D0042D00F0E682F5E20F2001F0E0
:101E80002BFE054600238DF830308DF831308DF86B
:101E900032308DF833308DF834308DF835308DF8A0
:101EA00036308DF837308DF838308DF839308DF880
:101EB0003A308DF83B308DF83C308DF83D308DF860
:101EC0003E308DF83F3084F8E430437F03F0CC039C
:101ED0008C2B27D002D8882B34D043E0C82B11D0CC
:101EE000CC2B3FD10CA805F1290108220AF04EF8AD
:101EF0000EA805F1210108220AF048F8AA461AF8AE
:101F0000316F30E00CA805F1230108220AF03EF8F9
:101F10000EA805F1210102220AF038F8AA461AF8A3
:101F20002B6F20E00CA805F1290102220AF02EF8FF
:101F30000EA805F1210108220AF028F8AA461AF88D
:101F40002B6F10E00CA805F1230102220AF01EF805
:101F50000EA805F1210102220AF018F8AA461AF883
:101F6000256F00E0002694F8E3303BB923782BB9C5
:101F7000062363700020FEF763FD7CE29DF83020AD
:101F800002F00307A6F17003122B00F24F82DFE884
:101F900013F048001300480011014D024D024D029C
:101FA0004D024D024D024D024D024D024D024D02B9
:101FB0004D024D0213001101D5E90201C4E93601B9
:101FC000812E07D102F007039AF80110234483F809
:101FD000F51004E09AF80130274487F8FE30E18CD0
:101FE00048F2010399420CD19DF8313042EA0322B4
:101FF000B2F5004F05D1AA69B4F804311344C4F80E
:102000000C31AB780C2B04D1052363700923E370EA
:1020100011E20E2B02D1072363700CE206236370DA
:1020200009E29AF807300133DFB29DF8313042EA15
:102030000322B2F5004F0DD12378012B0AD19AF873
:1020400002209AF8013003EB02231BB2C4F81031CE
:102050000023E362AB780C2B04D1052363700A23C1
:10206000E3702CE00E2B2AD02378012B04D194F8B6
:10207000F22012F0010F11D1E28C48F201018A42E4
:1020800004D194F8F11011F0040F07D1B2F5004F0C
:1020900007D194F8F12012F0020F02D003236370ED
:1020A0000DE0012B08D163700222A27084F8E330A6
:1020B00005E000BF00FEFFFF204600F00BFE702E83
:1020C00033D194F8F430BB421FD19DF8300000F0BA
:1020D00003004E3004EB80000AF10301042209F0F2
:1020E00055FF9DF8302002F0030202F14E0354F830
:1020F0002310CD4B994200F09E810123934094F828
:10210000F220134384F8F23095E19DF8303003F06B
:10211000030303F14E0254F82210C34A914200F027
:102120008A814E3344F8232085E194F88C31002BCA
:1021300000F0818194F8FD30BB4240F07C8184F84E
:10214000FE30234493F9F935032B23D19DF8300059
:102150009DF83830184400F00300563004EB80003E
:102160000AF10301042209F011FF04F5AC70042107
:10217000022204F1F103FFF747FCC4F87C0194F854
:10218000F13084F8F330002384F8F130AB69C4F8FF
:10219000883150E19DF830009DF83830184400F047
:1021A0000300563004EB80000AF10301042209F019
:1021B000EDFE40E100200021CDE90601CDE9080156
:1021C000CDE90A019AF8201094F8BE3003EB830B96
:1021D0000BF1070B5FFA8BFB822E0BD102F007008D
:1021E000204490F8F5E09AF80100864502D00623D5
:1021F000637020E1732E12D1E01990F8FEE09AF896
:102200000100864508D194F88C0128B9B4F826E07D
:1022100048F20300864502D1062363700BE1E08C8F
:1022200048F2010E704509D19DF831E042EA0E22D4
:10223000B2F5004F02D1012284F8E520C4F88001F4
:10224000194111F0010F00F08E80D5E902890023B9
:10225000A36508A80AF10201052209F097FE0AA861
:102260000AEB0B01052209F091FE06A80AF11B01F9
:10227000052209F08BFEDDE90801DDE90A23121AC7
:1022800063EB0103CDE90023D4E934ABD4E9362371
:10229000BAEB02026BEB0303104603F0FF01CDE93A
:1022A0000201B8EB0A0869EB0B0909F0FF09DDE947
:1022B0000623DDE90AABB2EB0A0A63EB0B0B0BF06A
:1022C000FF0BDDE9002303F0FF031046194608F079
:1022D00083FDCDE900014046494608F07DFD80467A
:1022E0008946DDE9000142464B4608F0A3FDCDE9F1
:1022F00004015046594608F06FFD82468B46DDE9E1
:10230000020108F069FD02460B4650465946CDE9E8
:10231000022308F08FFD02460B46DDE9040108F0B8
:10232000D5FBCDE9040140464946DDE9022308F02A
:10233000CFFB80468946DDE9000152465B4608F046
:10234000C7FB02460B464046494608F0C1FB024621
:102350000B46DDE9040108F097FE09F005F8804618
:102360004FEAE07903E0DFF8C0804FF00009822EE9
:1023700036D19DF830309DF8312003EB0223C4F8AC
:10238000843103F00703463344F8238004F59C703E
:102390000421012204F1F203FFF736FBC4F87C01AB
:1023A00094F8F23084F8F330002384F8F2301E4AB7
:1023B0000023994508BF90450ED09DF8300094F851
:1023C000BE1000F053FB94F8BE3001229A4084F80E
:1023D000F2204E3344F82380AB69C4F888310AE018
:1023E0009DF830309DF8312003EB0223C4F884318E
:1023F000523744F8278094F8F825A31893F8F93554
:1024000013F0800F08D15B42DBB2A11881F8F935D7
:1024100013B9FF2381F8F93501F0AAFC01F096FC0D
:102420000623637007E000BFFFFFCDAB0623637098
:102430000020FEF705FB2B7F13F0200F1BD0102090
:1024400001F04AFB17E0112001F046FB83780C2BCA
:1024500004D1052363700B23E3700CE00F2B0AD12A
:10246000204600F047FC06E00DB10123636063687D
:102470000BB901236360606811B0BDE8F08F00BF45
:102480002DE9F8432DED028B04469FED9B0B08F0E0
:102490005FFA51EC100B08F067FF00EB4000000101
:1024A00007EE900AF8EEE77ADFED998A77EEA88AD0
:1024B0009FED930B08F04CFA51EC100B08F054FF11
:1024C00000EB40004000C000924BDB7B83B99FEDE6
:1024D000928A68EE888ADFED917A78EEA78A07EE15
:1024E000900AF8EEE77A27EE888ABDEEC88A22E0E5
:1024F000012B10D19FED8A8A68EE888ADFED897AF8
:1025000078EEA78A07EE900AF8EEE77A27EE888A37
:10251000BDEEC88A0FE09FED848A68EE888ADFED01
:10252000817A78EEA78A07EE900AF8EEE77A27EE2E
:10253000888ABDEEC88A7D4AD35C764A927A043A8C
:10254000302A1AD8DFE802F02E19191922191919A0
:1025500031191919191919192B1919191F191919BB
:102560001919191919191919281919191C191919C9
:1025700019191919191919192500DFED6D7A16E0C5
:10258000DFED6C7A13E0DFED6C7A10E0DFED6B7A53
:102590000DE0DFED6B7A0AE0DFED6A7A07E0DFED50
:1025A0006A7A04E0DFED697A01E0DFED697A594A81
:1025B000527A012A0AD107EE103AB8EEC77A77EEBE
:1025C000277A9FED647A67EE877A09E007EE103A82
:1025D000B8EEC77A77EE277A9FED5F7A67EE877A53
:1025E00017EE900A08F0D2FB06460F46B8EEC88AEE
:1025F00078EE287A17EE900A08F0C8FB0022574BB5
:1026000008F042FD02460B463046394608F060FAB3
:102610003DA3D3E9002308F037FD08F0A5FE0546E9
:1026200000F11008204608F09FFB41EC100B00F071
:1026300087F9DFF8E090C9E90C0104EBD47460106D
:10264000643008F091FB41EC100B00F079F9C9E916
:102650000E0118EE900A08F099FB00223F4B08F09B
:1026600013FD02460B463046394608F031FA08F0B1
:102670007BFE99F80F30F3B905F53375C9F8505062
:10268000C9F8548000F5967008F06EFB41EC100B11
:1026900000F056F9C9E9100147EC106B00F050F951
:1026A000000A40EA01601030C9F848004FF4967300
:1026B000C9F84C301BE005F59E75164C2565C4F82D
:1026C000548000F5967008F04FFB41EC100B00F0C1
:1026D00037F9C4E9100147EC106B00F031F9000A3A
:1026E00040EA01601030A0644FF49673E364BDECDF
:1026F000028BBDE8F88300BF000000E0917ADD3F67
:1027000000000000000000000D71AC8BDB68F03FA2
:1027100000001843505A00208534004600452848E0
:102720007B3480440046A846C3350043B8F6000811
:1027300000000000000000450000C044000080448C
:10274000000000440000804300000043000080427D
:1027500000008045EA5B7E3FB341823F00408F40EE
:10276000014BD884704700BF505A002030B5A1B04B
:1027700005467F2468460C49224609F007FC1820CC
:10278000FDF714FE2846FFF75FF820466946002251
:10279000FDF75AFF20460021FEF754F80020FEF70F
:1027A0007FFB002021B030BDA4F900082DE9F043E3
:1027B000FBB0002406798DF800408DF801408DF8BB
:1027C00002408DF803408DF80440FDF7E1FD012E35
:1027D00008902BD0062E434D22D102A9A02252A848
:1027E000ADF80C408DF808408DF8096009F0CEFB7B
:1027F00095F8F1758DF8E34107EB870805EB48186C
:102800000137FFB252A908F5C870A02209F0BEFB3B
:10281000062F88F8906114BF85F8F17585F8F145A9
:10282000002385F8F3357BB0BDE8F0836846FDF7FB
:102830006FFF9DF802009DF801109DF80030294DB2
:102840009DF803709DF80420B5F8C8E0ADF80CE0E1
:10285000000400EB0121194401EB076314EB0308AA
:1028600091464FEA026202EB132749F100097246D2
:1028700005F1600109A80693CDE9048907978DF851
:1028800008408DF80A408DF8096085F8E44009F0A9
:102890007DFB02A92AA8A02209F078FB95F8F17522
:1028A0008DF8434107EB870805EB48182AA908F57E
:1028B000C870A02209F06AFBD5F8683188F89061E9
:1028C0000137FFB20133062FC5F868314FF000031E
:1028D00014BF85F8F17585F8F14585F8F3357BB0BF
:1028E000BDE8F083505A002008B5094A92F9E1305A
:1028F000002B0ADD106D13FB00F080B2FEF7B0FB79
:102900000020FEF76BFB0E2008BD0F2008BD00BFA6
:10291000505A002010B5094C606D400080B2FEF79F
:102920009FFB0020FEF75AFBB4F85400FEF798FB1B
:10293000D4F874310133C4F8743110BD505A0020FA
:1029400008B551EC100B06A3D3E9002308F09CFB5B
:1029500005A3D3E9002308F097FB08F07DFD08BD2F
:10296000FA48CE3B1835B13D0000000080842E416E
:1029700008B508F0F9F904A3D3E9002308F05AFADE
:1029800041EC100B08BD00BFFA48CE3B1835B13DF5
:102990002DE9F84304460846FFF7EAFF31A3D3E9DF
:1029A000002351EC100B08F045FA2B4D2B4B6A7CA1
:1029B00095F80890E40006460F462344C3E90067F3
:1029C0003AB1B9F1050F32D01DA3D3E9002308F0C5
:1029D0005BFB08F0F1FC697ADFF87C8000EE100AFE
:1029E0004846FEF75DFF304653EC102B394608F0A1
:1029F0006DF80022002306460F4608F08DFC98B9BA
:102A00003046394610A3D3E9002308F0A3FC58B997
:102A1000134AD8F878311444C4E900670133C8F880
:102A200078310120BDE8F8830020BDE8F88308A3D1
:102A3000D3E9002308F028FBCBE700BFAFF3008009
:102A4000F6285C8FC2F5F43F000000000088D340F8
:102A5000295C8FC2F528F83F505A00209062002070
:102A6000506300200000001319DDB14130B4064A64
:102A7000064B02EBC101D1E9004503EBC000C0E900
:102A8000004530BC704700BF5063002050620020FA
:102A9000024B03EBC00090ED000B7047506200202A
:102AA000064B074A30B4C0000024002503441044FC
:102AB000C3E90045C0E9004530BC70479062002082
:102AC00050630020014B1870704700BF505A00201F
:102AD000014B1878704700BF505A0020034B00226A
:102AE000D3F87C01C3F87C21704700BF505A002006
:102AF000014BD3F880017047505A0020014BD3F8A6
:102B000084017047505A0020014BD3F88801704768
:102B1000505A002038B5124C00250120E565FEF71B
:102B200001FB104B84F8CA50C4F87851C4F838310E
:102B3000C4F83C31C4F84031C4F84431C4F8183109
:102B4000C4F81C31C4F82031C4F82431C4F8283149
:102B5000C4F82C31C4F83031C4F8343138BD00BF6A
:102B6000505A0020FFFFCDABFDF700BEF8B54F4C2B
:102B70000378237243786373437823738378637293
:102B8000C378E3730279A2724279E2728279A27306
:102B900000222274022B05460089608208BF0123AF
:102BA0000E46434808BF63744FF0010118BF6274BA
:102BB000FEF70EFD2B783F4F217A03EB430317F806
:102BC00023302375A878FDF7FBFC431E033306D999
:102BD0002B78AA7803EB4303134457F82300334FB1
:102BE000A06107F11400FDF71FFEFDF7DDFC0238C0
:102BF000C0B2012833D9A878FDF7F0FCC0F34F002C
:102C0000431E9BB24FF6FD729342B88320D8FDF766
:102C1000DBFDA08BFDF7E4FDA38BE3832B79042B75
:102C200039D0F388A362B388A4F802313388A4F8BA
:102C300004313288E2627288A4F80621023A03FB6A
:102C400002F3C4F808313089BDE8F840FFF718BC3A
:102C5000AB78194A013B32F81300B883D7E73878CC
:102C6000FA7B397AA0F10200B0FA80F04009FDF752
:102C700075FC431E9BB24FF6FD729342B883C6D9D2
:102C80003B7A0E4AA3F10503B3FA83F35B0932F8EA
:102C90001300B883BBE71820FDF788FB0020FEF780
:102CA000C3F80820FDF782FBBBE700BF505A0020A5
:102CB000585A002044F9000828FA000824FA0008AD
:102CC000034B00F0030003EBC00393ED000B7047D0
:102CD0005063002008B506220223037042700020D2
:102CE000FEF7BEF90020FEF7F3F90020BDE808402A
:102CF000FDF7A6BE38B503460020DA6D1C78586093
:102D00000132022CDA6532D0012CDA7808D0022A9E
:102D100013D0032A1DD00121032259709A7038BDA7
:102D2000022A1BD0032AF6D11D46FEF725F90223FD
:102D300085F8E3406C70AB7038BDDA8C48F2010165
:102D40008A421AD0B2F5004FE5D193F8F1209207EC
:102D5000E1D41846BDE83840FFF7BCBF93F8F21045
:102D6000C807D8D483F8E3405C709A7038BD062257
:102D70005A70BDE83840FEF773B993F8F120510757
:102D8000C9D4E6E700F00300032801D0FFF7ACBD8B
:102D90000F20704710B50E4CE38CB3F5004F06D0F2
:102DA0000F2048F20102934208BF0F2010BD00F02F
:102DB0000300012801D00F2010BDB4F85000FEF729
:102DC0004FF90020FEF70AF9E38C0E20E9E700BF77
:102DD000505A002008B5074B986D9B6CC01AFEF73F
:102DE00059F80120FEF7FAF800B908BDBDE808401F
:102DF000FFF790BD505A00202DE9B04F86B000AFCC
:102E000003463960FB800F23FB7500233B610023E1
:102E1000FB607E4AFB68DB021344E0335B78002BE7
:102E200005D10020FEF71CF90020FEF751F93B68A0
:102E300003F00103002B23D0744AFB68DB02134428
:102E4000E0335B785BB2012B01D101233B616F4A18
:102E5000FB68DB02134403F5C4731B79002B07D115
:102E60006A4AFB68DB021344B8339B79032B07D112
:102E70000020FEF7F5F80020FEF7B0F80E23C0E0C2
:102E8000624AFB68DB021344583319685F4AFB68E7
:102E9000DB0213444033D3E900234FEA122A4AEA03
:102EA000036A4FEA132B5346CA185849FB68DB02E2
:102EB0000B4458331A603B6803F00103002B0FD119
:102EC000524AFB68DB021344E0335B785BB24F4944
:102ED000FA68D2020A44B83292791344032B02D022
:102EE0003B69012B7ED1494AFB68DB021344E03386
:102EF00002221A70454AFB68DB02134458331B68F0
:102F00001846FDF7C7FF0320FDF7CAFF0346002B55
:102F100039D00020FDF794FD3C4AFB68DB021344E6
:102F2000E03300221A70394AFB68DB02134403F5D0
:102F3000B8731B685A1C3549FB68DB020B4403F568
:102F4000B8731A60314AFB68DB02134458331968BE
:102F50002E4AFB68DB0213444033D3E900234FEAD7
:102F6000122848EA03684FEA132943465B00CA184F
:102F70002649FB68DB020B4458331A60FFF72AFF2F
:102F80000E23FB753CE0214AFB68DB0213445833F7
:102F900019681E4AFB68DB0213444033D3E900235F
:102FA000140A44EA03641D0A2346CA181749FB6839
:102FB000DB020B4458331A600C23FB75FDF7E8F96C
:102FC00003461946114AFB68DB02134403F5BE634E
:102FD00059600E4AFB68DB02134403F5BE6301220D
:102FE000DA700DE0FB88002B06D10020FEF738F8E0
:102FF0000020FDF7F3FF01E0FFF7ECFE0E23FB7569
:10300000FB7D18461837BD46BDE8B08F505A0020EA
:1030100080B584B000AF3B600346FB800B467B71FC
:1030200013463B710023FB81FB88DBB203F00303F3
:103030007B730023BB601323FB815A4ABB68DB020E
:103040001344C833FA891A80BB68DB026033554ADF
:103050001344591D7B793A681344084619460222E5
:1030600008F094FF4F4ABB68DB021344B833D979A8
:103070004C4ABB68DB02134460330A46DA71494AA2
:10308000BB68DB021344B933D979464ABB68DB021B
:10309000134461330A46DA71BB68DB026B33414A81
:1030A0001344591C7B7BBA685202134452339B0071
:1030B0003C4A134408461946042208F067FF7B7B0C
:1030C0003849BA68D2020A441344F8339979354A28
:1030D000BB68DB0213446F330A465A707B7B31496D
:1030E000BA68D2020A441344F83300229A713B7939
:1030F00001331A463B68134419782A4ABB68DB023D
:103100001344F8330A465A71264ABB68DB0213445B
:10311000C8339B785A1CD0B22249BA68D2020A44FA
:10312000C832014691701F49BA68D2020A4460321F
:1031300093701C4ABB68DB02134448335B68184633
:10314000FDF77EFC174ABB68DB02134403F5887366
:1031500000221A60134ABB68DB0213446933002261
:103160005A70104ABB68DB0213446A3300225A705B
:103170000C4ABB68DB021344683372225A70FB8925
:1031800018460021FDF75EFBBB68DB026033054A91
:103190001344FA89104619460022FDF755FA1037F4
:1031A000BD4680BD505A002080B588B000AF3B605E
:1031B0000346FB800B467B7113463B710023FB8368
:1031C000FB88DBB203F007037B770023BB6113238B
:1031D000FB83A14ABB69DB021344C833FA8B1A8014
:1031E000BB69DB0260339C4A1344591D7B793A6802
:1031F000134408461946022208F0C8FE964ABB69E5
:10320000DB021344B833D979934ABB69DB02134418
:1032100060330A46DA71904ABB69DB021344B93362
:10322000D9798D4ABB69DB02134461330A46DA71EE
:10323000BB69DB026B33884A1344591C7B7FBA6934
:103240005202134446339B00834A134408461946EE
:10325000042208F09BFE7B7F7F49BA69D2020A44B0
:103260001344F03359797C4ABB69DB0213446F3352
:103270000A465A707B7F7849BA69D2020A441344DD
:10328000F03300225A713B7901331A463B681344EC
:103290001978714ABB69DB021344F0330A461A718C
:1032A0006D4ABB69DB021344C8339B785A1CD0B209
:1032B0006949BA69D2020A44C83201469170664926
:1032C000BA69D2020A44603293707B7F6249BA695C
:1032D00052021344463351F82330604A934227D0B8
:1032E0005D4ABB69DB021344B8339B791A4601235C
:1032F0009340D9B2584ABB69DB021344F0330A4603
:103300009A70554ABB69DB021344B8339B7918465F
:103310007B7F5149BA6952021344463351F8232046
:103320004D49BB695B0203444E3341F8232015E04D
:10333000494ABB69DB021344B8339B791946464AB4
:10334000BB695B020B444E33444942F82310424AA6
:10335000BB69DB021344F03300229A703E4ABB691A
:10336000DB02134448335B681846FDF769FB3A4AB1
:10337000BB69DB02134403F5C4731B79002B6FD0C8
:1033800000237B6100233B610023FB60324ABB6961
:10339000DB02134403F580735B881A46BB6AB3FBF8
:1033A000F2F102FB01F29B1A3B61FB88DBB22A4976
:1033B000BA69D2020A4402F58072928802FB03F3D2
:1033C000FB60FA683B69D31A7B61234ABB69DB0265
:1033D000134403F580735B885B089BB25A427B6998
:1033E0009A4211DD1C4ABB69DB02134403F580736A
:1033F0005B881A467B691A441749BB69DB020B4498
:1034000003F588731A6007E0134ABB69DB021344B3
:1034100003F588737A691A600F4ABB69DB021344AB
:1034200003F588731B68D9B20B4ABB69DB021344EE
:1034300069330A465A70084ABB69DB02134403F534
:1034400088731B681B12D9B2034ABB69DB021344A1
:103450006A330A465A7019E0505A0020FFFFCDAB7C
:10346000174ABB69DB02134403F5887300221A6014
:10347000134ABB69DB021344693300225A70104AB5
:10348000BB69DB0213446A3300225A700C4ABB69E1
:10349000DB021344683370225A70FB8B18460021FC
:1034A000FDF7D0F9BB69DB026033054A1344FA8BA0
:1034B000104619460022FDF7C7F82037BD4680BDEB
:1034C000505A002084B02DE9F041114E9DF8B8808B
:1034D00096F8F14504EB840506EB451506AF01347B
:1034E00087E80F00E4B2002705F5C87006A9A022FE
:1034F0008DF8B37008F04AFD062C85F8908114BF52
:1035000086F8F14586F8F175BDE8F04104B07047E2
:10351000505A002084B080B5A8B026AF07F1100E35
:103520008EE80F0000237B60404A7B68DB02134477
:103530001B78022B3DD13D4A7B68DB021344E0330C
:103540005B785BB2002B2DDD384A7B68DB021344CD
:10355000E0335B78DBB2DBB2013BDBB2D9B2334A9A
:103560007B68DB021344E0330A465A7000200021D6
:10357000FFF742FC0346BB7400233B7444237B7477
:103580000023BB8204232493694607F12003902281
:103590000846194608F0FAFC07F110030FCBFFF7B5
:1035A00091FF3DE00020FDF75BFD0020FDF716FDDB
:1035B00036E01E4A7B68DB0213441B78002B03D1E4
:1035C0000020FDF70BFD2BE0184A7B68DB0213445B
:1035D000E0335B78DBB2DBB2013BDBB2D9B2134A3A
:1035E0007B68DB021344E0330A465A700020FFF781
:1035F000C9FB0346BB7400233B7444237B74002344
:10360000BB8204232493694607F1200390220846D5
:10361000194608F0BBFC07F110030FCBFFF752FF70
:103620000837BD46BDE8804004B07047505A0020BE
:103630002DE9F04F8346ADF51F7D00258DF89050A4
:103640008DF891508DF892508DF893508DF89450DC
:10365000FCF79EFE9BF804302C9026AC022B49D040
:10366000042B0CD02AA99022684608F08FFC94E81D
:103670000F00FFF74FFF0DF51F7DBDE8F08FB54E32
:1036800033780F22022BA27000F007810025042757
:10369000214676A84FF000084FF00009A0222570BF
:1036A000A580256165616770C4E9028908F06EFC38
:1036B00096F8F1458DF8735204EB840306EB43163C
:1036C00076A906F5C870A022013408F05FFCE4B2C8
:1036D000A04B86F89071062C14BF83F8F14583F84F
:1036E000F1559D482021012203F042FA0DF51F7D7E
:1036F000BDE8F08F9BF80820BBF80610A18002F00F
:10370000DF02412A00F0BA802F46AA46A9464FF0B0
:103710000108632624A8FDF701F8BBF806102DA8C0
:103720000022FCF7EBFF9DF892009DF891109DF8A8
:1037300090309DF893E09DF894206670000400EBB3
:1037400001210B4403EB0E6300201146207012068A
:10375000C01841F1000102EB13224FF00F0E022EB0
:103760002361C4E90201626184F802E07FF47AAF68
:10377000784EA0442744327898F81C003B7F002AFA
:103780004ED0012A00F09880611903EB0023087FD6
:10379000A0F170019FB2122942D8DFE801F00AE1DE
:1037A0000AC041414141414141414141414141936F
:1037B000C000012A00F02281032A00F058817028FD
:1037C00000F03B8196F88C21624B3AB193F8FD20D2
:1037D0001A4492F9F915022900F06A81F18C5D4BC7
:1037E00048F20202914240F0008193F8F8251A4411
:1037F00092F8F915080600F1F88093F8E1500131CC
:10380000013D82F8F91583F8E1500020FDF728FC0E
:103810000020FDF715F938460121FFF7EDFAA070F9
:10382000012386F8E43021464EA8A02208F0AEFB22
:1038300096F8F145DFF81C8104EB840506EB45158D
:10384000002705F5C8704EA9A0228DF8D37108F0A5
:103850009DFB022385F890310134D6F86C31E4B237
:10386000062C03F1010314BF88F8F14588F8F175BF
:10387000C6F86C310DF51F7DBDE8F08F9BF809206F
:1038800002F0CC02882A7FF43FAF092507271E46A5
:10389000A946BA464FF008083CE796F8E1305AB21C
:1038A000002A7FF7F3AE013BF08C86F8E130062169
:1038B000FFF7A2FAA070E9E696F8E110013986F860
:1038C000E11061E7012A2DD0254407F007086D7F3C
:1038D000A369009305F00F0505EB081506EB050E2F
:1038E0003846002751464A462DAB8EF8F97586F8C2
:1038F000F855FFF759FCB6F85400FDF7B1FB6369C2
:10390000B365032386F8E130F08C0221FFF774FAE7
:1039100008F14608114BA07046F8283080E7012ACC
:103920007FF47EAF96F8E13001332AA9902286F821
:10393000E130684608F02AFB94E80F00FFF7EAFD43
:10394000D6F86C3101221344C6F86C3186F8E420B5
:1039500091E600BF505A002000000240FFFFCDABAF
:1039600096F88CE1DFF86C81BEF1000F7FF458AF60
:10397000B8F8261048F2020399423FF651AF012AE7
:10398000D0D025445FFA87FB6B7F0BF0030503F073
:103990000F0303EB051545F0800508EB050C2DAB77
:1039A00051464A46384688F8F8558CF8F9E5FFF74D
:1039B0002FFB48F201039F4203D0B8F85400FDF7F3
:1039C0004FFBF08C6369B365CBEB000303F003039B
:1039D00086F8E1300321FFF70FFA07F003035233B3
:1039E0003B4AA07046F823201AE70020FDF738FB79
:1039F0000020FDF7F3FA0E23A37011E796F8F430D8
:103A0000334407F0030793F8F925032F02F101026D
:103A100083F8F92549D10F2096F8F220A0700123F0
:103A200007EB8701BB407018134324A9052286F8D1
:103A3000F230703008F0AAFAF2E696F8F835DFF8BE
:103A400094E0334493F8F9150D06CED49EF8E120A6
:103A500050B20028C9DD4D1C013A3846042183F8D4
:103A6000F9558EF8E120FFF7C7F9A070D8E696F86F
:103A7000FD303344384693F8F925013283F8F925AF
:103A8000FFF788F907F0030796F8F120A0700123EB
:103A900007EB8701BB407018134324A9052286F861
:103AA000F130703008F072FABAE6FEF71DFFB3E7A6
:103AB00093F8F150384645F008050327052183F8AF
:103AC000F15082F8F975FFF797F9A070A8E600BFEA
:103AD000FFFFCDAB505A00202DE9F04B264D95F855
:103AE000F01501EB810149016C1804F5C87294F8D6
:103AF00090312BB9214A214813705370BDE8F08BE7
:103B000004F5CC731D4ED4F8A07192F802C0B2F83F
:103B100004E03761D3E90089834629445078D4F81A
:103B2000A8317070D4F8A471B36101F5D67106F1B3
:103B30001C007F22C6E9028986F802C0A6F804E0CC
:103B4000776108F023FA95F8F03594F8901184F82D
:103B50002BB20133DBB20022062B08BF13463170B3
:103B600084F8902114BF85F8F03585F8F02585F8A4
:103B7000F2350248BDE8F08B505A0020B0620020B8
:103B800038B50A4C04F5707520460021A034A022F7
:103B900008F0FAFAAC42F7D1054B002283F8F12580
:103BA00083F8F02583F8F22538BD00BFE05B0020E4
:103BB000505A002038B5254D0023022240F60F0050
:103BC0002A706B7085F8E330FDF74CF8044603204B
:103BD000FCF750FFB4BBFEF79DFF4DF6CA63A5F896
:103BE000CC3085F8E04085F8E44085F8E540FFF703
:103BF000C7FF0822214605F1BF0008F0C5FA20469C
:103C0000C5F81041FCF702FF2046FCF7E7FE10481C
:103C10000121FDF76DFA0F480F49FCF723FFFF2341
:103C200005F2F950F6214FF4807285F8F345C5F896
:103C30007041C5F8744185F8E13008F0A5FAAC652B
:103C4000204638BD4FF0FF3038BD00BF505A00202D
:103C500080D02324AD27000831360008F8B5364F50
:103C6000364897F8F23503EB830307EB4313012142
:103C70000A4693F8904102F07BFF2F4D21462846DB
:103C8000FDF7F0FE002406460028F6D02B4801215F
:103C9000224602F06DFF022E34D095F8E530012B5C
:103CA00001D00020F8BD97F8E440234D002CF8D156
:103CB0002B78012BF5D1FCF76BFBD5F8E830D5F864
:103CC000EC20C01A9042ECD995F8F13585F8E54022
:103CD00003EB8302520102F5C87101332944DBB2C0
:103CE0002A44062B4FF084064FF004008C8081F8A4
:103CF0009B404E7082F8900114BF85F8F13585F82D
:103D0000F145CEE72B78012B06D095F8E53000225F
:103D100087F8E4207A60C2E7E86AAA6AD5F8101149
:103D200085F8E53002440A44C5F8EC20C5F81411C2
:103D3000C5F81041EBE700BF505A002000080240D0
:103D4000014BC3F8FC077047505A002010B5074CD0
:103D500094F82430012B00D010BD1E200021226ACF
:103D6000FCF74AFD002384F8243010BD505A00208F
:103D700010B5084C94F82530012B00D010BDE08B15
:103D8000FCF722FDA08BFCF72BFD002384F82530E7
:103D900010BD00BF505A0020410900F01F00012350
:103DA0008340024A42F82130704700BF00E100E042
:103DB000430900F01F00012282402033014941F8ED
:103DC0002320704700E100E02DE9F04F2DED028B3C
:103DD000624FDFF8B08185B00023B946C346039334
:103DE00003E0FEF77BFE002846D197F8F345FCF789
:103DF000CFFAD7F8F465054604F0B6FDFFF72EFFBD
:103E0000FEF766FE012CC8F80000EAD1B9F80431CB
:103E1000AD1B9D42E5DD21460F20FCF785FC2146C8
:103E200005461920FCF780FC214606460A20FCF7CF
:103E30007BFC214682460620FCF776FC32462B4668
:103E40008DE801044649474808F002FA454806F063
:103E50008FFBDBF800300022012B89F8E0201CD01A
:103E6000FDF78AF8062389F80130002387F8F33537
:103E7000FEF734FE0028B8D0FEF73AFEFEF73EFE0D
:103E8000FEF742FED8F80030022B0AD0012B48D0B2
:103E9000FCF77EFA344B1860A7E73048FEF72AFF9C
:103EA000E3E70398FEF7F4FD002251EC100BB0EEAF
:103EB000408AF0EE608A2D4B06F0BCFF07F054FA02
:103EC000002846D1039C0925631C072BD6BFA61CDE
:103ED00000241C462046C8BF0126FEF7D9FD00225B
:103EE00051EC100BB0EE408AF0EE608A1F4B06F0EA
:103EF000A1FF07F039FA08B9013DE5D103961C4B43
:103F00001C491A681C4823468DED008B08F0A0F967
:103F1000194806F02DFB039B072BB9DD0023039303
:103F2000B6E7039D154A28461468FEF7C9FE2246E7
:103F30008DED000B124910482B4608F089F92B46ED
:103F400001331C460C48039306F012FB032CE5DCFE
:103F50009EE7039B1C4601330393D0E7505A002091
:103F600054FA0008D0630020881B002000408F40D6
:103F70002864002070FA0008806300207C63002021
:103F800084FA00085000002008B500F01003DAB2EF
:103F900000F0200303EB820300F04000C0B203EB0B
:103FA000A0000011094B1860022907D1042807DC82
:103FB0006FEA40406FEA504080B203E080B201E017
:103FC00048F20400FEF7CCFB08BD00BF901B0020A8
:103FD000C0F3400310F0040F00D0023318467047BE
:103FE00030B587B005464CA3D3E90023CDE90023C3
:103FF0001820FCF7DBF9FEF7B7FD3F4B984217D0CE
:104000003E4C20461021012202F0B2FD012004F0B6
:10401000B7FC20461021002202F0AAFD072004F080
:10402000AFFCFEF7A1FD344B98425BD1FDF772FA6D
:10403000FCF7E6F96846FCF753FCFFF7BBFD0028E8
:1040400053DB0820FCF7B2F9FEF78EFD2A4B9842AD
:104050004ED115F0080F03D10122294B1A6002E05E
:104060000222274B1A60264C28462178FFF78CFF46
:104070002368022B05D1234B1B68042B01DD002292
:1040800022601F4B1868FEF71DFD2846FFF7A0FFB2
:104090001D4B18601D4C81000A185200A318A25C29
:1040A0008DF80C201A4C2260DA788DF80D205A78A1
:1040B0008DF80E205A798DF811209A798DF81220FA
:1040C0001A89ADF814209A788DF80F201B798DF895
:1040D00010300144490003A80E4B1944FEF746FD79
:1040E000054807E04FF0FF3004E04FF0FF3001E0FB
:1040F0004FF0FF3007B030BD3001CADE0000024093
:1041000050000020901B00208C1B00202800002065
:1041100024640020000000200BA7375E1068071001
:1041200008B50120FFF70CFE08BD00BF08B50B481D
:104130000221012202F01CFD0948402102F01EFD6F
:10414000FDF722F80748102102F00AFD0128EED001
:1041500002480221002202F00BFD08BD00080240C7
:104160000000024000040240094C002108B520680C
:104170000A460B4605F08AF800210B4620684FF0EE
:10418000FF3205F083F80128F6D1FFF7CFFFF3E700
:104190002064002038B50446FEF79AFC054614F06A
:1041A000020F01D11A4A00E01A4A1B4C20461B4953
:1041B0001B4B1B6808F04CF8204606F0D9F9194B48
:1041C0001A68194B1A60194B1A60012D08D1184C46
:1041D0002046184908F03CF8204606F0C9F938BDD9
:1041E000022D08D1124C2046134908F031F8204620
:1041F00006F0BEF938BD04220C4B1A600C4C204668
:104200000E4908F025F8204606F0B2F938BD00BF87
:104210003CFB000898FA0008806300209CFA000824
:1042200024640020901B00207C6300202864002070
:10423000D0630020B0FA0008BCFA0008C8FA0008F1
:1042400008B510F0020F01D10E4A00E00E4A0F4CE3
:1042500020460F490F4B1B6807F0FAFF204606F077
:1042600087F920460C49102207F090FE204606F000
:104270007FF94FF48050FEF779FA022004F080FBBA
:10428000FBE700BF3CFB000898FA000880630020B1
:10429000D4FA000824640020E8FA000808B5044BAA
:1042A0001B7823B1034B1868002104F093FF08BD6D
:1042B000841B00202064002030B52548254C8BB09D
:1042C00006F056F9244806F053F940230A202370DB
:1042D000FFF76EFD214806F04BF92078FFF780FECE
:1042E00001302ED0207800F03803382B2DD01C4C14
:1042F000FFF750FF0A20FFF74FFD0FCC6D460FC5AB
:1043000054F8043B2B600021684604F009FB154B70
:1043100018600FCC05AD0FC523682B60002105A8E0
:1043200004F0FEFA104B032218600021012004F073
:104330006FFE0E4A0E4B106001221A7000200BB067
:1043400030BD0C4806F014F9F8E7FFF779FF00BF1D
:10435000FCFA0008941B002008FB00081CFB000866
:104360002CFA000874630020706300202064002091
:10437000841B00202CFB000808B5FFF79DFF0020E0
:10438000BDE8084004F0EABA10B5044602F076FF32
:10439000064BA3FB0030800900F09CF84FF0FF3083
:1043A0002146002200F04CF8002010BDD34D6210D1
:1043B00008B50B4B1A6842F400721A601A6842F48E
:1043C00080621A601A6842F480721A60032000F05A
:1043D00025F80020FFF7D8FF06F090F9002008BD6F
:1043E000003C0240024A136801331360704700BF6B
:1043F000981B0020014B1868704700BF981B0020D5
:1044000010B582B00190FFF7F5FF0446FFF7F2FF09
:10441000001B019B9842F9D302B010BD00F00700C9
:10442000064AD36823F4E0631B041B0C43EA002014
:1044300040F0BF6040F40030D060704700ED00E015
:1044400030B4164BDC68C4F30224C4F10705042D14
:1044500028BF0425231D062B01D9033C00E00024BE
:10446000012303FA05F5013D2940A140A340013B8A
:104470001A400A43002806DA00F00F001201D2B2F7
:10448000074B1A5407E01201D2B200F1604000F568
:10449000614080F8002330BC704700BF00ED00E0B1
:1044A00014ED00E0410900F01F0001238340024A9F
:1044B00042F82130704700BF00E100E0430900F0FE
:1044C0001F00012282402033014941F82320704718
:1044D00000E100E00138B0F1807F0AD2064B58605D
:1044E000F021064A82F823100020986007221A6003
:1044F00070470120704700BF10E000E000ED00E0D1
:10450000430900F01F00012282406033014941F855
:104510002320704700E100E0042805D1054A136814
:1045200043F0040313607047024A136823F0040346
:104530001360704710E000E030B405682C6824F484
:1045400080242C60046863608368402B04D1036876
:104550009A600368D96003E0036899600368DA60D1
:1045600030BC7047002831D010B40346022280F8D6
:10457000352004682168184A0A4040689968084351
:10458000D968084319690843596908439969084378
:10459000D9690843196A01430A43596A042903D1B6
:1045A000D86A196B01430A43226019684A6922F0EC
:1045B0000702586A0243042801D1986A02434A61FB
:1045C0000020D864012283F8352001E001207047E3
:1045D0005DF8044B704700BF3F8010F038B590F88D
:1045E0003440012C2ED00446012084F834000220EF
:1045F00084F835002568286820F0010028602046EE
:10460000FFF79AFF2268136843F0100313602268D3
:10461000136843F0080313602268136843F004032F
:1046200013602268536943F0800353612268136862
:1046300043F0020313602268136843F00103136020
:10464000002038BD022038BD10B504460368B24AC8
:10465000934257D9583A5268B0498B424CD001F531
:1046600080618B4246D0A1F568718B4240D001F544
:1046700080618B423AD0A1F589618B4233D001F53C
:1046800080618B422CD0A1F568718B4225D001F559
:1046900080618B421ED0A1F589618B4217D001F554
:1046A00080618B4210D0A1F568718B4209D001F571
:1046B00080618B4202D14FF400211EE04FF0007167
:1046C0001BE04FF4002118E04FF4002115E04FF4F7
:1046D000002112E04FF400710FE04FF400710CE084
:1046E0004FF4007109E04FF4007106E0082104E086
:1046F000082102E0082100E008210A4214BF01223B
:10470000002218E1864A934258D902F55272126883
:1047100082498B424CD001F580618B4246D0A1F595
:1047200068718B4240D001F580618B423AD0A1F58F
:1047300089618B4233D001F580618B422CD0A1F589
:1047400068718B4225D001F580618B421ED0A1F5A6
:1047500089618B4217D001F580618B4210D0A1F5A1
:1047600068718B4209D001F580618B4202D14FF410
:1047700000211EE04FF000711BE04FF4002118E013
:104780004FF4002115E04FF4002112E04FF40071C6
:104790000FE04FF400710CE04FF4007109E04FF4AA
:1047A000007106E0082104E0082102E0082100E091
:1047B00008210A4214BF01220022BCE0594A934258
:1047C00057D9583A526855498B424CD001F580610F
:1047D0008B4246D0A1F568718B4240D001F58061D3
:1047E0008B423AD0A1F589618B4233D001F58061CB
:1047F0008B422CD0A1F568718B4225D001F58061E8
:104800008B421ED0A1F589618B4217D001F58061E2
:104810008B4210D0A1F568718B4209D001F58061FF
:104820008B4202D14FF400211EE04FF000711BE0DB
:104830004FF4002118E04FF4002115E04FF400215F
:1048400012E04FF400710FE04FF400710CE04FF4F0
:10485000007109E04FF4007106E0082104E008212E
:1048600002E0082100E008210A4214BF01220022D0
:1048700061E02D4A126829498B4257D001F58061C9
:104880008B4246D0A1F568718B4240D001F5806122
:104890008B423AD0A1F589618B4233D001F580611A
:1048A0008B422CD0A1F568718B4225D001F5806137
:1048B0008B421ED0A1F589618B4217D001F5806132
:1048C0008B4210D0A1F568718B4209D001F580614F
:1048D0008B4202D14FF4002129E04FF0007126E015
:1048E0004FF4002123E04FF4002120E04FF4002199
:1048F0001DE04FF400711AE04FF4007117E04FF41F
:10490000007114E04FF4007111E008210FE008215C
:104910000DE008210BE000BF586402401060024027
:10492000B8600240586002400060024008210A421C
:1049300014BF01220022002A00F07D811A6812F0C3
:10494000040F00F078811A6822F004021A602368CC
:10495000AA4A934254D9A2F5896293424CD002F5F7
:104960008062934246D0A2F56872934240D002F52D
:10497000806293423AD0A2F58962934233D002F525
:10498000806293422CD0A2F56872934225D002F542
:10499000806293421ED0A2F58962934217D002F53D
:1049A0008062934210D0A2F56872934209D002F55A
:1049B0008062934202D14FF400221EE04FF0007259
:1049C0001BE04FF4002218E04FF4002215E04FF4F2
:1049D000002212E04FF400720FE04FF400720CE07E
:1049E0004FF4007209E04FF4007206E0082204E080
:1049F000082202E0082200E00822814BDA600CE184
:104A0000804A934253D9A83A93424CD002F580622F
:104A1000934246D0A2F56872934240D002F580627C
:104A200093423AD0A2F58962934233D002F5806274
:104A300093422CD0A2F56872934225D002F5806291
:104A400093421ED0A2F58962934217D002F580628C
:104A5000934210D0A2F56872934209D002F58062A9
:104A6000934202D14FF400221EE04FF000721BE08F
:104A70004FF4002218E04FF4002215E04FF400221A
:104A800012E04FF400720FE04FF400720CE04FF4AC
:104A9000007209E04FF4007206E0082204E00822E8
:104AA00002E0082200E00822554B9A60B5E0564A21
:104AB000934253D9483A93424CD002F580629342D4
:104AC00046D0A2F56872934240D002F580629342CC
:104AD0003AD0A2F58962934233D002F580629342C4
:104AE0002CD0A2F56872934225D002F580629342E1
:104AF0001ED0A2F58962934217D002F580629342DC
:104B000010D0A2F56872934209D002F580629342F8
:104B100002D14FF400221EE04FF000721BE04FF470
:104B2000002218E04FF4002215E04FF4002212E0BA
:104B30004FF400720FE04FF400720CE04FF400727B
:104B400009E04FF4007206E0082204E0082202E0C7
:104B5000082200E008222D4BDA605EE02C4A9342E6
:104B600058D002F58062934246D0A2F56872934213
:104B700040D002F5806293423AD0A2F58962934216
:104B800033D002F5806293422CD0A2F56872934232
:104B900025D002F5806293421ED0A2F5896293422D
:104BA00017D002F58062934210D0A2F5687293424A
:104BB00009D002F58062934202D14FF400222AE02C
:104BC0004FF0007227E04FF4002224E04FF400225F
:104BD00021E04FF400221EE04FF400721BE04FF47E
:104BE000007218E04FF4007215E04FF4007212E00A
:104BF000082210E008220EE008220CE0586402406F
:104C000000640240B8600240586002400060024008
:104C1000106002400822B24B9A60E36C43F001033B
:104C2000E364042384F83530002384F83430A36C23
:104C30000BB1204698472368AA4A934253D9583A61
:104C40005268A9498B4248D001F580618B4242D01D
:104C5000A1F568718B423CD001F580618B4236D062
:104C6000A1F589618B4230D001F580618B422AD059
:104C7000A1F568718B4224D001F580618B421ED072
:104C8000A1F589618B4217D001F580618B4210D06C
:104C9000A1F568718B4209D001F580618B4202D188
:104CA0004FF480311AE04FF4800117E04FF4803167
:104CB00014E04FF4803111E04FF480310EE04021D8
:104CC0000CE040210AE0402108E0402106E087494D
:104CD00004E0864902E0854900E084490A4214BFA5
:104CE000012200220DE1824A934254D902F5527208
:104CF00012687D498B4248D001F580618B4242D0D9
:104D0000A1F568718B423CD001F580618B4236D0B1
:104D1000A1F589618B4230D001F580618B422AD0A8
:104D2000A1F568718B4224D001F580618B421ED0C1
:104D3000A1F589618B4217D001F580618B4210D0BB
:104D4000A1F568718B4209D001F580618B4202D1D7
:104D50004FF480311AE04FF4800117E04FF48031B6
:104D600014E04FF4803111E04FF480310EE0402127
:104D70000CE040210AE0402108E0402106E05B49C8
:104D800004E05A4902E0594900E058490A4214BF78
:104D900001220022B5E0574A934253D9583A52684B
:104DA00051498B4248D001F580618B4242D0A1F538
:104DB00068718B423CD001F580618B4236D0A1F501
:104DC00089618B4230D001F580618B422AD0A1F5F8
:104DD00068718B4224D001F580618B421ED0A1F511
:104DE00089618B4217D001F580618B4210D0A1F50B
:104DF00068718B4209D001F580618B4202D14FF47A
:104E000080311AE04FF4800117E04FF4803114E054
:104E10004FF4803111E04FF480310EE040210CE07E
:104E200040210AE0402108E0402106E02F4904E04B
:104E30002E4902E02D4900E02C490A4214BF01220C
:104E400000225EE0264A126827498B4254D001F5C1
:104E500080618B4242D0A1F568718B423CD001F554
:104E600080618B4236D0A1F589618B4230D001F54B
:104E700080618B422AD0A1F568718B4224D001F564
:104E800080618B421ED0A1F589618B4217D001F55C
:104E900080618B4210D0A1F568718B4209D001F579
:104EA00080618B4202D14FF4803126E04FF48001C3
:104EB00023E04FF4803120E04FF480311DE04FF4C7
:104EC00080311AE0402118E0402116E0402114E032
:104ED000402112E0054910E004490EE003490CE0CE
:104EE00000600240586402401060024001008000EF
:104EF000B860024058600240AB490A4214BF012228
:104F00000022002A00F06F815A6912F0800F00F031
:104F10006A815A6922F080025A612368A34A934247
:104F200050D9A2F58962934248D002F5806293423B
:104F300042D0A2F5687293423CD002F5806293425F
:104F400036D0A2F58962934230D002F58062934256
:104F50002AD0A2F56872934224D002F5806293426F
:104F60001ED0A2F58962934217D002F58062934267
:104F700010D0A2F56872934209D002F58062934284
:104F800002D14FF480321AE04FF4800217E04FF460
:104F9000803214E04FF4803211E04FF480320EE0A2
:104FA00040220CE040220AE0402208E0402206E0D5
:104FB0007D4A04E07C4A02E07B4A00E07A4A7C4B6E
:104FC000DA6002E17B4A93424FD9A83A934248D033
:104FD00002F58062934242D0A2F5687293423CD0BF
:104FE00002F58062934236D0A2F58962934230D0B6
:104FF00002F5806293422AD0A2F56872934224D0CF
:1050000002F5806293421ED0A2F58962934217D0C6
:1050100002F58062934210D0A2F56872934209D0E3
:1050200002F58062934202D14FF480321AE04FF4CD
:10503000800217E04FF4803214E04FF4803211E028
:105040004FF480320EE040220CE040220AE0402281
:1050500008E0402206E0544A04E0534A02E0524A83
:1050600000E0514A524B9A60AFE0534A93424FD905
:10507000483A934248D002F58062934242D0A2F56A
:10508000687293423CD002F58062934236D0A2F51A
:105090008962934230D002F5806293422AD0A2F511
:1050A0006872934224D002F5806293421ED0A2F52A
:1050B0008962934217D002F58062934210D0A2F524
:1050C0006872934209D002F58062934202D14FF494
:1050D00080321AE04FF4800217E04FF4803214E07F
:1050E0004FF4803211E04FF480320EE040220CE0A9
:1050F00040220AE0402208E0402206E02A4A04E07A
:10510000294A02E0284A00E0274A2C4BDA605CE09A
:105110002B4A934256D002F58062934242D0A2F5C8
:10512000687293423CD002F58062934236D0A2F579
:105130008962934230D002F5806293422AD0A2F570
:105140006872934224D002F5806293421ED0A2F589
:105150008962934217D002F58062934210D0A2F583
:105160006872934209D002F58062934202D14FF4F3
:10517000803228E04FF4800225E04FF4803222E0B4
:105180004FF480321FE04FF480321CE040221AE0DE
:10519000402218E0402216E0402214E0024A12E0C9
:1051A000014A10E0004A0EE001008000586402400D
:1051B00000640240B8600240586002400060024053
:1051C00010600240B44AB54B9A60E36C43F00203AE
:1051D000E364042384F83530002384F83430A36C6E
:1051E0000BB1204698472368AD4A934257D9583AA5
:1051F0005268AC498B424CD001F580618B4246D05D
:10520000A1F568718B4240D001F580618B423AD0A4
:10521000A1F589618B4233D001F580618B422CD09E
:10522000A1F568718B4225D001F580618B421ED0BB
:10523000A1F589618B4217D001F580618B4210D0B6
:10524000A1F568718B4209D001F580618B4202D1D2
:105250004FF480211EE04FF080711BE04FF480215D
:1052600018E04FF4802115E04FF4802112E04FF454
:1052700080710FE04FF480710CE04FF4807109E011
:105280004FF4807106E0884904E0874902E08649CE
:1052900000E085490A4214BF012200221BE1834A33
:1052A000934258D902F5527212687E498B424CD013
:1052B00001F580618B4246D0A1F568718B4240D0E8
:1052C00001F580618B423AD0A1F589618B4233D0E0
:1052D00001F580618B422CD0A1F568718B4225D0FD
:1052E00001F580618B421ED0A1F589618B4217D0F8
:1052F00001F580618B4210D0A1F568718B4209D015
:1053000001F580618B4202D14FF480211EE04FF005
:1053100080711BE04FF4802118E04FF4802115E0EC
:105320004FF4802112E04FF480710FE04FF4807150
:105330000CE04FF4807109E04FF4807106E05A49A7
:1053400004E0594902E0584900E057490A4214BFB5
:1053500001220022BFE0564A934257D9583A526878
:1053600050498B424CD001F580618B4246D0A1F56B
:1053700068718B4240D001F580618B423AD0A1F533
:1053800089618B4233D001F580618B422CD0A1F52D
:1053900068718B4225D001F580618B421ED0A1F54A
:1053A00089618B4217D001F580618B4210D0A1F545
:1053B00068718B4209D001F580618B4202D14FF4B4
:1053C00080211EE04FF080711BE04FF4802118E037
:1053D0004FF4802115E04FF4802112E04FF48071EA
:1053E0000FE04FF480710CE04FF4807109E04FF44E
:1053F000807106E02C4904E02B4902E02A4900E0D4
:1054000029490A4214BF0122002264E0234A12689B
:1054100024498B425AD001F580618B4254D0A1F5CA
:1054200068718B424ED001F580618B4248D0A1F566
:1054300089618B4241D001F580618B423AD0A1F560
:1054400068718B4225D001F580618B421ED0A1F599
:1054500089618B4217D001F580618B4210D0A1F594
:1054600068718B4209D001F580618B4202D14FF403
:1054700080212CE04FF0807129E04FF4802126E05C
:105480004FF4802123E04FF4802120E04FF480711D
:105490001DE04FF480711AE00100800000600240BE
:1054A000586402401060024004008000B86002406E
:1054B000586002404FF4807109E04FF4807106E0BB
:1054C000B54904E0B44902E0B34900E0B2490A42F8
:1054D00014BF01220022002A00F07F811A6812F016
:1054E000020F00F07A811A6822F002021A60236823
:1054F000AA4A934254D9A2F5896293424CD002F54C
:105500008062934246D0A2F56872934240D002F581
:10551000806293423AD0A2F58962934233D002F579
:10552000806293422CD0A2F56872934225D002F596
:10553000806293421ED0A2F58962934217D002F591
:105540008062934210D0A2F56872934209D002F5AE
:105550008062934202D14FF480221EE04FF08072AD
:105560001BE04FF4802218E04FF4802215E04FF446
:10557000802212E04FF480720FE04FF480720CE052
:105580004FF4807209E04FF4807206E0824A04E032
:10559000814A02E0804A00E07F4A814BDA600EE1F6
:1055A000804A934253D9A83A93424CD002F5806284
:1055B000934246D0A2F56872934240D002F58062D1
:1055C00093423AD0A2F58962934233D002F58062C9
:1055D00093422CD0A2F56872934225D002F58062E6
:1055E00093421ED0A2F58962934217D002F58062E1
:1055F000934210D0A2F56872934209D002F58062FE
:10560000934202D14FF480221EE04FF080721BE0E3
:105610004FF4802218E04FF4802215E04FF48022EE
:1056200012E04FF480720FE04FF480720CE04FF400
:10563000807209E04FF4807206E0574A04E0564A4F
:1056400002E0554A00E0544A554B9A60B7E0564A8A
:10565000934253D9483A93424CD002F58062934228
:1056600046D0A2F56872934240D002F58062934220
:105670003AD0A2F58962934233D002F58062934218
:105680002CD0A2F56872934225D002F58062934235
:105690001ED0A2F58962934217D002F58062934230
:1056A00010D0A2F56872934209D002F5806293424D
:1056B00002D14FF480221EE04FF080721BE04FF4C5
:1056C000802218E04FF4802215E04FF4802212E08F
:1056D0004FF480720FE04FF480720CE04FF4807250
:1056E00009E04FF4807206E02B4A04E02A4A02E007
:1056F000294A00E0284A2D4BDA6060E02C4A9342A8
:105700005AD002F58062934254D0A2F56872934257
:1057100040D002F5806293423AD0A2F5896293426A
:1057200033D002F5806293422CD0A2F56872934286
:1057300025D002F5806293421ED0A2F58962934281
:1057400017D002F58062934210D0A2F5687293429E
:1057500009D002F58062934202D14FF480222CE0FE
:105760004FF0807229E04FF4802226E04FF480222F
:1057700023E04FF4802220E04FF480721DE04FF4CC
:1057800080721AE04FF4807217E04FF4807214E0D8
:10579000014A12E0004A10E0040080005864024010
:1057A00000640240B860024058600240006002405D
:1057B00010600240B84A00E0B74AB84B9A60E36C08
:1057C00043F00403E364042384F83530002384F8B1
:1057D0003430A36C0BB1204698472368B04A9342FB
:1057E00057D9583A5268AF498B424CD001F5806185
:1057F0008B4246D0A1F568718B4240D001F58061A3
:105800008B423AD0A1F589618B4233D001F580619A
:105810008B422CD0A1F568718B4225D001F58061B7
:105820008B421ED0A1F589618B4217D001F58061B2
:105830008B4210D0A1F568718B4209D001F58061CF
:105840008B4202D14FF480111EE04FF080611BE0CB
:105850004FF4801118E04FF4801115E04FF48011DF
:1058600012E04FF480610FE04FF480610CE04FF4E0
:10587000806109E04FF4806106E0102104E010210E
:1058800002E0102100E010210A4214BF0122002290
:1058900019E1854A934258D902F55272126881493A
:1058A0008B424CD001F580618B4246D0A1F56871E6
:1058B0008B4240D001F580618B423AD0A1F58961DD
:1058C0008B4233D001F580618B422CD0A1F56871F9
:1058D0008B4225D001F580618B421ED0A1F58961F4
:1058E0008B4217D001F580618B4210D0A1F5687111
:1058F0008B4209D001F580618B4202D14FF48011B7
:105900001EE04FF080611BE04FF4801118E04FF46F
:10591000801115E04FF4801112E04FF480610FE028
:105920004FF480610CE04FF4806109E04FF4806136
:1059300006E0102104E0102102E0102100E0102117
:105940000A4214BF01220022BDE0584A934257D9AF
:10595000583A526853498B424CD001F580618B42D2
:1059600046D0A1F568718B4240D001F580618B4231
:105970003AD0A1F589618B4233D001F580618B4229
:105980002CD0A1F568718B4225D001F580618B4246
:105990001ED0A1F589618B4217D001F580618B4241
:1059A00010D0A1F568718B4209D001F580618B425E
:1059B00002D14FF480111EE04FF080611BE04FF4E4
:1059C000801118E04FF4801115E04FF4801112E0BF
:1059D0004FF480610FE04FF480610CE04FF4806180
:1059E00009E04FF4806106E0102104E0102102E09C
:1059F000102100E010210A4214BF0122002262E0BF
:105A0000264A126827498B4258D001F580618B42A3
:105A100052D0A1F568718B424CD001F580618B4268
:105A200046D0A1F589618B4233D001F580618B426C
:105A30002CD0A1F568718B4225D001F580618B4295
:105A40001ED0A1F589618B4217D001F580618B4290
:105A500010D0A1F568718B4209D001F580618B42AD
:105A600002D14FF480112AE04FF0806127E04FF41B
:105A7000801124E04FF4801121E04FF480111EE0EA
:105A80004FF480611BE04FF4806118E04FF48061B7
:105A900015E04FF4806112E00400800000600240D5
:105AA0005864024010600240B860024058600240F2
:105AB000102104E0102102E0102100E010210A4230
:105AC00014BF01220022002A00F0F8821A6812F0A6
:105AD000080F00F0F3821A6812F4802F00F078812A
